:100000000C94D4000C94FC000C94FC000C94FC00A8
:100010000C94FC000C94FC000C94FC000C94FC0070
:100020000C94FC000C94FC000C9492050C94FB05C1
:100030000C94FC000C94FC000C94FC000C94FC0050
:100040000C94FC000C94FC000C94FC000C94FC0040
:100050000C94FC000C94FC000C94FC000C944805DF
:100060000C94FC000C94FC000C94FC000C94FC0020
:100070000C94FC000C94FC000C94FC000C94FC0010
:100080000C94FC000C94FC000C94FC000C94FC0000
:100090000C94FC000C94FC000C94FC000C94FC00F0
:1000A0000C94FC000C94FC000C94FC0000001F005D
:1000B0003B005A0078009700B500D400F30011010E
:1000C00030014E014641494C20005041535320001D
:1000D0002077616E7420003A20676F7420004641DB
:1000E000494C2000504153532000272077616E7403
:1000F0002027003A20676F74202700080B000202B7
:1001000002000009040000010202000005240010A2
:10011000010524010101042402060524060001074B
:1001200005810310004009040100020A00000007D5
:100130000502024000000705830240000004030995
:100140000412010002EF020140512B0510000101D1
:1001500002030150617820496E737472756D656E8B
:100160007473005434303000206661696C757265B8
:10017000732C20616C6C2070617373656400204681
:1001800041494C45440053554D4D4152593A200088
:100190002D2D2D2D20666F726D61745F74657374E3
:1001A000202D2D2D2D003B0A11241FBECFEFDAE0AC
:1001B000DEBFCDBF12E0A0E0B1E0E2E9FBE102C0AA
:1001C00005900D92AC36B107D9F722E0ACE6B2E06B
:1001D00001C01D92AC3DB207E1F710E0C4EDD0E0E4
:1001E00004C02197FE010E94CA0AC33DD107C9F786
:1001F0000E943D080C94C70D0C94000090918B0256
:10020000911103C08FEF9FEF08954FB7F89492E0DC
:100210009093E9009091F200292F30E01216130616
:1002200014F421E030E0232B29F084E680938A0245
:100230008091F100992339F02091F200211103C03F
:100240002BE62093E8004FBF9923E1F290E0089558
:100250002FB7F89483E08093E9009091E800892F0C
:10026000807295FF04C09091F20080E4891B2FBF3B
:1002700008958091820281110DC082E080937E02F8
:1002800084E080937F02109281021092800281E0CC
:10029000809382028EE792E008953FB7F8948091B0
:1002A0007A0290917B02A0917C02B0917D0226B5EA
:1002B000A89B05C02F3F19F00196A11DB11D3FBF9E
:1002C000BA2FA92F982F8827BC01CD01620F711D6D
:1002D000811D911D43E0660F771F881F991F4A9566
:1002E000D1F708958F929F92AF92BF92CF92DF92F3
:1002F000EF92FF924B015C010E944D016B017C016A
:100300000E944D016C197D098E099F09683E73405A
:1003100081059105A8F321E0821A9108A108B1088E
:1003200088EEC80E83E0D81EE11CF11C81149104F4
:10033000A104B10429F7FF90EF90DF90CF90BF9018
:10034000AF909F908F90089540916E0250916F02F0
:1003500020916C0230916D0242175307B4F49091D2
:10036000E8009570E1F39091E80092FD19C0809348
:10037000F10080916E0290916F0201968F73992720
:10038000892B19F48EEF8093E80080916E02909192
:100390006F02019690936F0280936E0281E0089540
:1003A00080E00895EF92FF920F931F93CF93DF9316
:1003B000F82E192FE62E042F81E0860F880F0E9459
:1003C000A40183E00E94A401CF2DD12FEC0EFD2EBD
:1003D000F11CCE15DF05B9F007FF13C0FE018491B3
:1003E0000E94A401182F80E00E94A401812321967D
:1003F0008111EFCFDF91CF911F910F91FF90EF907F
:1004000008958881EDCF81E0F5CFDF92EF92FF92E2
:100410000F931F93CF93DF93D82E8A01EB017B01BB
:10042000E40EF51ECE15DF0559F0D7FE12C0FE0111
:1004300084910E94A40121968111F4CF0FEF1FEF48
:10044000C801DF91CF911F910F91FF90EF90DF9046
:1004500008958881EECF0F931F93CF93DF931F9260
:10046000CDB7DEB782E0898342E450E06BEF70E005
:1004700080E80E9405020E943901DC0112960D916C
:100480001C910115110589F0D801ED91FC910280B4
:10049000F381E02DBE016F5F7F4FC801099597FD85
:1004A00004C0F80100851185ECCF89810F90DF91A0
:1004B000CF911F910F9108958F929F92AF92BF920B
:1004C000CF92DF92EF92FF920F931F93CF93DF9320
:1004D0006C017B018A0180910B01882309F45BC0C8
:1004E00080918B02882309F456C08091720280FFAC
:1004F00005C08091E00082608093E000E801B12CAB
:100500008AEFA82E93E0892E2AE3922E209711F4E9
:10051000BB20D9F10E94280181110AC0AA94AA2007
:10052000D1F161E070E080E090E00E947201EECFD6
:100530008C171D0611F00CF08C2F9FB7F894809249
:10054000E9002091E80025FD02C09FBFDFCF282FE2
:1005500030E0C21BD30BF701815020F04191409352
:10056000F100FACFE20EF31EBB2021F09092E800DA
:10057000B12CEBCF8091E80085FDE7CF9092E800A9
:10058000BB24B394209709F3F3CF84E680937102E0
:10059000101611063CF081E090E0F601938382830F
:1005A00010E000E0C801DF91CF911F910F91FF9003
:1005B000EF90DF90CF90BF90AF909F908F90089575
:1005C000CF93DF931F92CDB7DEB76983DC01ED9146
:1005D000FC910280F381E02D41E050E0BE016F5FAD
:1005E0007F4F09950F90DF91CF9108950F931F933F
:1005F000CF93DF938C01D0E0C0E0F801EC0FFD1F3A
:100600006491662341F08CE892E00E94E002892B1D
:1006100011F02196F2CFCE01DF91CF911F910F9172
:10062000089583E08093E9008091F200882319F017
:100630008AE38093E80008950E94280190E00895DD
:10064000FC018485958597FD05C02FEF3FEF358729
:10065000248708950C94FE00CF93DF93EC018C85E2
:100660009D8597FF04C00E94FE009D878C878C8526
:100670009D85DF91CF910895FC018485958597FD37
:100680000BC09FB7F89482E08093E9008091F2005C
:100690009FBF90E0019608959FB7F89482E0809301
:1006A000E9008091F2009FBF90E00895AF92BF9261
:1006B000CF92DF92EF92FF920F931F93CF93DF932E
:1006C000EC01888199817C0100EDE01A07E0F00AD5
:1006D0008D5C9740FC01F695E795F695E7959701B7
:1006E000ADE6B1E00E94B00A6E0F7F1F811D911D23
:1006F000AA812A2F2150330BF901EE0FFF1FE45579
:10070000FF4F059114912B812150330B200F311F86
:100710005B016C01A20EB31EC11CD11CA601950188
:10072000A33048F0C70183709927892B21F42F5FEC
:100730003F4F4F4F5F4FA8E1B0E00E94BF0A2C81AE
:100740006B017C01C20ED11CE11CF11CA7019601BA
:10075000ACE3B0E00E94BF0A2D817B018C01E20E68
:10076000F11C011D111DA80197010E94BF0A2E81D5
:10077000620F711D811D911DDF91CF911F910F910E
:10078000FF90EF90DF90CF90BF90AF900895FC0165
:1007900001900020E9F73197AF01481B590BBC01CC
:1007A0008CE892E00C945C028F929F92AF92BF9281
:1007B0000F931F93CF93DF93CDB7DEB7A1970FB6FB
:1007C000F894DEBF0FBECDBF19A2423008F44AE054
:1007D0008E010F5D1F4F842E912CB12CA12CA501F1
:1007E00094010E948E0AE62FB901CA01EA30F4F49E
:1007F000E05DD801EE938D01232B242B252B79F777
:1008000090E080E0109719F0CD010E94C703A196F7
:100810000FB6F894DEBF0FBECDBFDF91CF911F9111
:100820000F91BF90AF909F908F900895E95CE1CFBA
:10083000CF92DF92EF92FF92CF93DF936B017C0117
:100840006DE28CE892E00E94E002EC0166277727D7
:10085000CB016C197D098E099F094AE00E94D403DF
:100860008C0F9D1FDF91CF91FF90EF90DF90CF9085
:1008700008958F929F92AF92BF92CF92DF92EF92A4
:10088000FF920F931F93CF93DF93EC014A015B011B
:10089000680179018AEC90E08C149D04AE04BF04D9
:1008A00039F0809174028F5F8093740284EC90E041
:1008B0000E94F602CE010E94C70387ED90E00E94DD
:1008C000F602B7FE1EC0C501B4010E94180480EDF7
:1008D00090E00E94F602F7FE1AC0C701B6010E941E
:1008E000180487E691E0DF91CF911F910F91FF905F
:1008F000EF90DF90CF90BF90AF909F908F900C942F
:10090000C7034AE0C501B4010E94D403E0CF4AE026
:10091000C701B6010E94D403E4CF5F926F927F9229
:100920008F929F92AF92BF92CF92DF92EF92FF92FF
:100930000F931F93CF93DF93CDB7DEB7A4970FB676
:10094000F894DEBF0FBECDBF6C01662E5A014C017C
:1009500020E097FF07C088249924881A990A8DE21D
:10096000898321E08E010F5F1F4F200F312F311D32
:10097000C4016AE070E00E947A0ACB014AE0B90142
:100980000E94500AF80101900020E9F73197E01B1E
:10099000F10B7E2ECE0149967C0120E25524539422
:1009A000570C761428F4DC012D93CD01752CF6CF6D
:1009B000AF015527B8010E94D00AF701E70DF11DDC
:1009C0008EE28083F701E50DF11DC4016AE070E05D
:1009D0000E947A0A805D8083E2E0E70DEE0DFF2D34
:1009E000F11D10821F926F92DF92CF928AE691E002
:1009F0009F938F931F9288E18F931F930F930E9471
:100A0000E20AB501C7010E94D90A0FB6F894DEBF09
:100A10000FBECDBF892BC9F1809174028F5F809387
:100A200074028EED90E00E94F602C8010E94C70396
:100A300083EF90E00E94F602C7010E94C7038AEE8E
:100A400090E00E94F602C5010E94C70367E28CE8AD
:100A500092E00E94E00287E691E00E94C703A4961C
:100A60000FB6F894DEBF0FBECDBFDF91CF911F91BF
:100A70000F91FF90EF90DF90CF90BF90AF909F903D
:100A80008F907F906F905F90089584EE90E0CBCF31
:100A90001F920F920FB60F9211242F933F938F93B3
:100AA0009F93AF93BF938091760290917702A0912C
:100AB0007802B09179023091750226E0230F2D372C
:100AC00058F50296A11DB11D209375028093760200
:100AD00090937702A0937802B093790280917A0282
:100AE00090917B02A0917C02B0917D020196A11DA4
:100AF000B11D80937A0290937B02A0937C02B09305
:100B00007D02BF91AF919F918F913F912F910F9057
:100B10000FBE0F901F90189529E8230F0396A11D73
:100B2000B11DD2CF1F920F920FB60F9211248F9347
:100B30009F938091E1009091E100937F9093E10079
:100B400083FF0FC01092E90091E09093EB001092A8
:100B5000EC0092E39093ED0010928B0298E090935A
:100B6000F00082FF1CC093E09093E9009091F200A6
:100B7000992319F09AE39093E800909171029923D8
:100B800029F09091710291509093710290918A0294
:100B9000992329F090918A02915090938A0284FFC0
:100BA00018C08091E2008E7E81608093E200809187
:100BB000E1008F7E8093E100809172028E7E8061E1
:100BC000809372029F918F910F900FBE0F901F9094
:100BD000189580FFF7CF8091E2008E7E8061809330
:100BE000E2008091E1008E7E8093E10080917202AC
:100BF0008E7E8160E5CF1F920F920FB60F92112467
:100C0000CF92DF92EF92FF920F931F932F933F9318
:100C10004F935F936F937F938F939F93AF93BF9304
:100C2000EF93FF93CF93DF93CDB7DEB76C97DEBF23
:100C3000CDBF1092E9008091E80083FF2FC089E0CA
:100C4000FE017596EE2EDF2E815029F09091F10075
:100C500090833196F9CF84E680938A0282EF809365
:100C6000E8008D8987FF39C09091E80090FFFCCFA4
:100C7000982F907609F033C19E894F89588D2F891E
:100C8000F88C911131C0803861F5809173028093A6
:100C9000F1001092F1008EEF8093E8006C960FB691
:100CA000F894DEBF0FBECDBFDF91CF91FF91EF91E2
:100CB000BF91AF919F918F917F916F915F914F9174
:100CC0003F912F911F910F91FF90EF90DF90CF9068
:100CD0000F900FBE0F901F9018959EEF9093E80015
:100CE000C7CF1092F100D5CF913059F48111D3CFF5
:100CF0004130510581F6809173028D7F809373029C
:100D0000CACF933049F48111C6CF4130510519F64D
:100D1000809173028260F2CF953041F48091E800B7
:100D200080FFFCCF20682093E300B5CF963009F018
:100D3000A8C00B8D1C8D22E01092E90010926F026A
:100D400010926E02F2122EC010926D0210926C027E
:100D50000E942B021F8299E09983FA8291E09E8380
:100D600090EA98879AEF998720916E0230916F02EE
:100D7000275F3F4F3C832B838D831092E9001092B5
:100D80006F0210926E0210936D0200936C0249E0A4
:100D900050E0BE016F5F7F4F80E00E9405020E941D
:100DA0002B0279CF10936D0200936C020E943901DF
:100DB000DC0112960D911C910115110509F457C122
:100DC000D801ED91FC910480F581E02D6E2D7D2DF3
:100DD000C8010995009709F045C1F8010085118502
:100DE000EBCFF3E0FF120EC08F89882309F440C0D7
:100DF000823061F440E864E083E691E00E94D20131
:100E0000811149CF81E28093EB0048CF813029F4F2
:100E100040E86FE083E591E0F1CF833099F70E94DD
:100E20003901DC011296ED90FC908E010F5F1F4F8F
:100E30006801E114F10479F0D701ED91FC9106808D
:100E4000F781E02DB801C7010995080F111DF701C1
:100E5000E084F184EECFD8011C92F60101900020CD
:100E6000E9F73197BF016C197D0940E0C601C6CF93
:100E70006DE371E0FB01449150E080E80E940502BF
:100E80000ACF973009F4BECF983021F481E08093E7
:100E9000F10001CF993009F0FECE837009F0B2CF96
:100EA000E1E6F1E081E031E096E32191222371F067
:100EB0008093E9003093EB00DF0111972C91209390
:100EC000EC009093ED008F5F873079F78EE7809389
:100ED000EA001092EA008F8980938B02DCCE8B8D22
:100EE0009C8D1092E90010926F0210926E02909306
:100EF0006D0280936C02898D81119AC08E899D89C3
:100F0000913A49F4813209F07DCF47E050E064E046
:100F100071E080E0B3CF913209F074CF833269F48D
:100F20008F89988DB0E0A0E080930001909301013B
:100F3000A0930201B0930301AECE8032A9F4809158
:100F4000E80082FFFCCF88E0E4E0F1E0815029F086
:100F50009091F10090833196F9CF84E680938A02D4
:100F60008BEF8093E80097CE823209F094CE8F8980
:100F700080930B01EEEFFFE7859194918B3F9C4DA1
:100F800051F1E0E0F8E08091040190910501A09119
:100F90000601B0910701803B9440A105B105F1F431
:100FA00080910B0180FD1AC0EE3F8AE0F80789F5B9
:100FB00087E797E791838083809160008093700238
:100FC00088E19BE00FB6F894A895809360000FBE6F
:100FD0009093600060CEEEEFFAE0D5CF80819181F2
:100FE0008737974709F057CEA895809160008861B0
:100FF000809360008091700280936000EE3F2AE051
:10100000F20789F08091FE0A9091FF0A9183808314
:1010100042CE808191818737980751F29093FF0AE1
:101020008093FE0AC5CF1092FF0A1092FE0A33CEBB
:101030000E943901DC0112960D911C9101151105D8
:1010400009F4E0CED801ED91FC910190F081E02D02
:101050006E2D7D2DC801099581111DCEF8010085E9
:101060001185ECCF181619060CF415CECBCEF1E095
:10107000FF12B7CE61E471E0FDCECF93DF93CDB721
:10108000DEB7C255D1090FB6F894DEBF0FBECDBF93
:10109000789484B5826084BD84B5816084BD85B553
:1010A000826085BD85B5816085BD80916E0081605F
:1010B00080936E0010928100809181008260809305
:1010C0008100809181008160809381008091800007
:1010D0008160809380008091910082608093910074
:1010E0008091910081608093910080919000816057
:1010F000809390008091C10084608093C1008091B2
:10110000C10082608093C1008091C10081608093A2
:10111000C1008091C30081608093C3008091C000B2
:1011200082608093C0008091C20081608093C20081
:1011300080917A00846080937A0080917A00826046
:1011400080937A0080917A008E7F80937A008091DC
:101150007A00806880937A0010928B02109273025A
:10116000109272028091D70081608093D70080EA4C
:101170008093D80089B58F7E89BD89B5826089BD8D
:1011800009B400FEFDCF61E070E080E090E00E94D5
:1011900072018091D8008F7C80618093D80080910B
:1011A000E000807F8093E0008091E1008E7E80935C
:1011B000E1008DE08093E2008FEF9FEF9093990222
:1011C000809398028AE3282E82E0382E5E0103E4A1
:1011D000A00EB11C90E0892E90E0992E109274021E
:1011E00080E991E00E94F60287E691E00E94C70341
:1011F0004CEA51E060E090E080E00E948D0445EA16
:1012000051E060E085E090E00E948D0444EA51E006
:1012100060E08BEF9FEF0E948D044BE751E060E0B0
:1012200087EF9FEF0E948D0440E851E060E086EF79
:101230009FEF0E948D044DE951E060E083E291E070
:101240000E948D0445E851E060E084E795EF0E943C
:101250008D044CE851E060E088E995E30E948D043C
:1012600044E951E060E088EF9FE70E948D0443E984
:1012700051E060E088E090E80E948D044BE951E085
:1012800064E083E291E00E948D0442EA51E064E070
:101290008BEF9FEF0E948D0449EA51E064E088EEF5
:1012A00093E00E948D0440EB51E064E085E89FEFFD
:1012B0000E948D0408E418E020E030E048E458E0A3
:1012C00060E070E087EB91E00E94390400E411E0F7
:1012D00020E030E040E451E060E070E083EC91E039
:1012E0000E94390408EB11E620E030E048EB51E6BB
:1012F00060E070E08DEC91E00E94390400E51FE0B1
:1013000020E030E040E55FE060E070E080EF91E0F9
:101310000E94390400E71EEF2FEF3FEF40E75EEF3A
:101320006FEF7FEF82E192E00E94390406EA1BE052
:1013300020E030E046EA5BE060E070E08EE192E0C1
:101340000E94390405E81FEF2FEF3FEF45E85FEFFC
:101350006FEF7FEF89E292E00E94390482E4ECE0D3
:10136000F1E0DE01119601900D928A95E1F79E0160
:101370002F5F3F4F6901F12CE12CFF92EF923F92DA
:101380002F921F9230E13F93BF92AF920E94E20AE8
:10139000F6014780508461847284C6010E9456031E
:1013A000AB01BC0193018201C5010E943904FFEF2A
:1013B000EF1AFF0A0BE0C00ED11C0FB6F894DEBF87
:1013C0000FBECDBF36E0E316F104B9F6CE018D961F
:1013D0000E9456032B013C01CE018D960E945603BC
:1013E0009B01AC01AAE0B0E00E94BF0A6B017C0146
:1013F000E5E0CE0ED11CE11CF11CA30192010E947C
:10140000BF0A97018601061B170B280B390BB90180
:10141000A80105E010E020E030E088E492E00E94BE
:10142000390486E891E00E94F602F09074026F2D74
:1014300070E090E080E04AE00E94D40388E691E00A
:10144000FF2011F08EE791E00E94F60287E691E01E
:101450000E94C70387E691E00E94C70368EB7BE028
:1014600080E090E00E9472018114910409F4B6CEEC
:101470000E940000B3CEECE8F2E01382128288EE04
:1014800093E0A0E0B0E084839583A683B78382E5F0
:1014900091E0918380838FEF9FEF958784870895F4
:1014A000BB27FB015527AA27880F991FAA1FA4173E
:1014B00010F0A41B83955051B9F7A05DAA3308F032
:1014C000A95DA193009779F7B111B1931192CB0166
:1014D0000C946A0ADC01FC01672F71917723E1F714
:1014E000329704C07C916D9370836291AE17BF07F1
:1014F000C8F30895AA1BBB1B51E107C0AA1FBB1F5D
:10150000A617B70710F0A61BB70B881F991F5A958F
:10151000A9F780959095BC01CD010895A1E21A2EFE
:10152000AA1BBB1BFD010DC0AA1FBB1FEE1FFF1F87
:10153000A217B307E407F50720F0A21BB30BE40BD7
:10154000F50B661F771F881F991F1A9469F760951E
:101550007095809590959B01AC01BD01CF010895D8
:10156000A29FB001B39FC001A39F700D811D1124E4
:10157000911DB29F700D811D1124911D08950E942F
:10158000B00AA59F900DB49F900DA49F800D911D52
:1015900011240895EE0FFF1F0590F491E02D09949A
:1015A000FB01DC0102C001900D9241505040D8F780
:1015B0000895FB01DC018D91019080190110D9F390
:1015C000990B0895AEE0B0E0E8EEFAE00C949E0DC1
:1015D0000D891E898F89988D26E02C831A830983B3
:1015E00097FF02C080E090E801979E838D83AE0153
:1015F000455E5F4F698D7A8DCE0101960E94120B78
:101600004D815E8157FD0AC02F81388542175307EF
:101610000CF49A01020F131FF80110822E96E4E0D9
:101620000C94BA0DABE0B0E0E8E1FBE00C94900D57
:101630007C013B018A01FC0117821682838181FFB4
:10164000C8C1CE0101965C01F7019381F30193FDBE
:10165000859193FF81913F01882309F453C185321D
:1016600039F493FD859193FF81913F01853229F4EF
:10167000B70190E00E94020DE7CF912C212C312C74
:10168000FFE1F31538F08B3211F190F4803209F15B
:10169000833229F137FC3CC020ED280F2A3050F569
:1016A00036FE20C08AE0989E200D1124922E06C09E
:1016B0008D3291F0803371F7689430F8F30193FD27
:1016C000859193FF81913F018111DACF21C0689408
:1016D00031F8689432F8F2CF689433F8EFCF689419
:1016E00034F8ECCFEAE02E9E200D1124222E6894CF
:1016F00035F8E4CF8E3229F436FC04C1689436F80C
:10170000DDCF8C3619F4689437F8D8CF8836B1F22B
:10171000982F9F7D95549330E0F08336A1F1833765
:10172000C1F1833509F063C02801F2E04F0E511C6E
:10173000F801C080D180692D70E036FC02C06FEFE7
:101740007FEFC6010E94EC0C4C01689437F88201CF
:101750000AC00C5F1F4FFFE3F98388248394912C08
:101760006501E89437F833FE2DC0522C81149104A2
:1017700071F5552009F468CFB70180E290E00E942E
:10178000020D5A94F6CFF801808189830E5F1F4FB6
:10179000E4CF2801F2E04F0E511CF801C080D18047
:1017A000692D70E036FC02C06FEF7FEFC6010E942A
:1017B000F70C4C018201D5CFB70180E290E00E9486
:1017C000020D2A942814190409F0B0F7CECFF601BF
:1017D00037FC859137FE81916F01B70190E00E943F
:1017E000020D51105A94F1E08F1A9108BFCF843640
:1017F00019F0893609F077C0F80137FE6BC06081B7
:101800007181828193810C5F1F4FF32DFF763F2EF4
:1018100097FF09C090958095709561957F4F8F4F88
:101820009F4F689437F82AE030E0A5010E94320DFE
:10183000C82ECA188C2C432C36FE0CC0E89440F8F5
:10184000C91440F434FE05C032FC03C0F32DFE7E03
:101850004F2E892C44FE95C0FE01EC0DF11D8081B8
:10186000803309F087C0242D297E422E842D887074
:10187000582E43FC95C040FE8FC09C2C821418F457
:101880002C0C922C981844FE91C0B70180E390E094
:101890000E94020D42FE09C088E790E041FE02C0AE
:1018A00088E590E0B7010E94020DC91408F48AC0CF
:1018B000CA94D12C9FEFC91AD90ACA0CDB1CF601B5
:1018C00082916F01B70190E00E94020DAC14BD043B
:1018D000B1F74FCF60817181072E000C880B990BF7
:1018E0000E5F1F4F92CFD32CE894D4F82AE030E05B
:1018F000853739F1232D297FD22E8F3601F148F417
:101900008835A9F0F701868197812B96E2E10C9446
:10191000AC0D803749F08837A9F7D4FE02C068942F
:10192000D2F820E130E00DC06894D4F8F6CF34FE50
:1019300003C0822F8660D82E20E132E002C028E06A
:1019400030E0F801D7FE0FC0608171818281938100
:101950000C5F1F4FA5010E94320DC82ECA183D2CE6
:10196000E89437F867CF6081718190E080E00E5F86
:101970001F4FF0CF42FC02C0839478CF83948394AE
:1019800075CF842D867809F471CFF6CFB70180E248
:1019900090E00E94020D83948214C0F3512C73CF07
:1019A000522C5818821408F46ECFF8CF842D867804
:1019B00009F47BCF8BE241FE80E247FC8DE2B70168
:1019C00090E071CFB70180E390E00E94020D9A94FD
:1019D0006CCF8FEF9FEF99CFFC0105906150704065
:1019E0000110D8F7809590958E0F9F1F0895FC01E8
:1019F0006150704001900110D8F7809590958E0F3E
:101A00009F1F08950F931F93CF93DF93182F092FD4
:101A1000EB018B8181FD09C01FEF0FEF812F902F0C
:101A2000DF91CF911F910F91089582FF14C02E81F5
:101A30003F818C819D81281739073CF4E881F98129
:101A4000CF0101969983888310838E819F810196AF
:101A50009F838E83E3CFE885F985812F0995892BB4
:101A6000A1F3DACFFA01AA27283051F1203181F110
:101A7000E8946F936E7F6E5F7F4F8F4F9F4FAF4F96
:101A8000B1E03ED0B4E03CD0670F781F891F9A1FA9
:101A9000A11D680F791F8A1F911DA11D6A0F711D5D
:101AA000811D911DA11D20D009F468943F912AE069
:101AB000269F11243019305D3193DEF6CF01089551
:101AC000462F4770405D4193B3E00FD0C9F7F6CF82
:101AD000462F4F70405D4A3318F0495D31FD40524A
:101AE000419302D0A9F7EACFB4E0A69597958795E0
:101AF00077956795BA95C9F70097610571050895BF
:101B00009B01AC010A2E069457954795379527956A
:101B1000BA95C9F7620F731F841F951FA01D089502
:101B20002F923F924F925F926F927F928F929F92ED
:101B3000AF92BF92CF92DF92EF92FF920F931F93DB
:101B4000CF93DF93CDB7DEB7CA1BDB0B0FB6F8948C
:101B5000DEBF0FBECDBF09942A88398848885F84CC
:101B60006E847D848C849B84AA84B984C884DF803D
:101B7000EE80FD800C811B81AA81B981CE0FD11D21
:101B80000FB6F894DEBF0FBECDBFED010895F894F7
:021B9000FFCF85
:101B9200FFFFFFFF00E1000000000000D00701018D
:101BA20000000000000000D0070301000000001A3E
:101BB2004F00D10701010000000085E201E80702A1
:101BC2001D173B3BFFD6732DEA070A040C000040A9
:101BD200FC543233080C1F173B3B7F1319BC000027
:101BE2000000E0025C021C0311033C0320032C03EF
:101BF20000C180810000000D0A00666D7454656E9C
:101C02007468732825642C256429002D302E390030
:101C12002D312E30002D3237302E30003133373215
:101C22002E30002D333237362E3000202032392E1E
:101C3200310020202D302E3500203130302E300062
:101C4200202D31322E3300432D3E46203130302EAE
:101C5200304300432D3E4620302E304300432D3E7C
:101C62004620313337322E304320287761732031BA
:101C7200362D626974206F766572666C6F77290003
:101C8200432D3E46203230302E3043202877617378
:101C92002031362D626974206F766572666C6F77BB
:101CA2002900432D3E46202D34302E304300432D53
:101CB2003E4B2032352E304300432D3E432070618F
:101CC20073737468726F75676800746F5365636FBE
:101CD2006E6473202325640074656E7468732064D7
:101CE2006966666572656E6365206163726F7373A0
:0C1CF20020325E333220777261700000F7
:00000001FF
