:100000000C94E4030C940C040C940C040C940C2637
:100010000C94A9260C940C040C940C040C94F1265A
:100020000C940C040C94CD260C9419220C9482226E
:100030000C940C040C940C040C940C040C940C0400
:100040000C940C040C94E3250C940C040C940C04F8
:100050000C940C040C940C040C940C040C94CF2100
:100060000C940C040C940C040C940C040C940C04D0
:100070000C940C040C940C040C940C040C940C04C0
:100080000C940C040C940C040C940C040C940C04B0
:100090000C94C4240C940C040C940C040C940C04C8
:1000A0000C940C040C940C040C940C042028002CCC
:1000B0002074656D705F0074696D65202873292C4C
:1000C0002074696D657374616D70000100030243F3
:1000D000414C00756E7365740043464B00532C30E1
:1000E0002E31352C00FFE0FFD1A4AFFF32FFD0FF4F
:1000F000FEFFE0FFD1AC00AEA5FFD0FFFEFFE0FFAA
:10010000D11000FFFEFFD0FFE0FFD1FFCFA3A1C0C1
:10011000402CFF322EFF322FFF3226A6C018AFFF31
:1001200064A5FF64FF64A4FFD0FFFE080B00020279
:100130000200000904000001020200000524001072
:10014000010524010101042402060524060001071B
:1001500005810310004009040100020A00000007A5
:100160000502024000000705830240000004030965
:100170000412010002EF020140512B0510000101A1
:1001800002030150617820496E737472756D656E5B
:100190007473005434303000070108090A0B000062
:1001A00000000001455252004F4B004F4B004F4B97
:1001B000206F6666736574732075563A0045525217
:1001C00020666F726D6174004F4B200045525220C3
:1001D00072616E676500455252206C6F6767696E89
:1001E000670045525220666F726D6174004F4B205C
:1001F0000000002F0036007200C4002C01A7013758
:1002000002D8028C03500425050906FD06FF0710DD
:10021000092E0A580B8F0CD20D1F0F7710D91143DE
:1002200013B6143016B2173A19C71A581CED1D86AA
:100230001F2121BE225D24FD259C273A29D72A7241
:100240002C0A2EA12F3431C6325734E635753704C7
:1002500039953A263CB93D4D3FE3407B421544B0C9
:10026000454D47EB488A4A2A4CCB4D6C4F0F51B352
:1002700052BB54FC55A1574759EE5A955C3D5EE57B
:100280005F8E613763E0648A66DA67DE69896B33A3
:100290006DDE6E88703272DD7387753177DA788340
:1002A0007A2C7CD57D7D7F2481CB8271841786BB9F
:1002B000876089038BA68C478EE88F88912793C629
:1002C000946396FF979B99359BCF9C679EFF9F9663
:1002D000A12BA3C0A453A6E6A777A908AB97AC2689
:1002E000AEB4AF40B1CCB256B4DFB568B7EFB876B4
:1002F000BAFBBB7FBD02BF84C005C285C304C581F4
:10030000C6FEC779C9F3CA6BCCE3CD59CFCDD04176
:10031000D2B3D323D593D600D86CD9D7DA40DCA892
:10032000DD0EDF72E0D5E136E396E4F4E551E7ACAB
:10033000E805EA5DEBB4EC09EE5DEF00001F003B61
:10034000005A0078009700B500D400F30011013086
:10035000014E01756E736574002E435356002D2DAA
:100360006F6B3F3F3F3F00202D2D2D2D0000078458
:10037000071F001F07410041076300630773003533
:1003800030306D73004E6F74206C6F6767696E67F5
:10039000004B00460043006F005479704B005344FB
:1003A000206D61782066696C657321004469736112
:1003B000626C6564207768696C65206C6F6767693B
:1003C0006E67004B65657020686F6C64696E6720AE
:1003D000746F2063616C6962726174650043616C63
:1003E0006962726174696E672028304320696365B1
:1003F00020626174682900000102050A1E3C07069C
:1004000005040100080A0B0C0D090000000024007F
:1004100027002A002D0030000000000025002800E1
:100420002B002E00310000000000230026002900D0
:100430002C002F0004040404040304050202020239
:10044000040302020202060606060606040402026D
:100450000204040408020110408040102040804043
:10046000800802040180402010020110801020400A
:1004700040200000000200090F0000030401000CEE
:10048000000000000000000000000000000000006C
:10049000007C3C3E5E2B3D3F2F5B5D3B2C2A225C6B
:1004A0000001050800FF0601210235207FFF07FF3C
:1004B00006FF090050221656808080800080153388
:1004C00053A0A0A00257575050F850F85050025770
:1004D000572070A07028702013355580A040A020B0
:1004E00002475740A0A040A0A05025135380808011
:1004F0001226564080808080401226568040404020
:1005000040800245559060F060900255552020F8DB
:100510002020113353604080044151F01133534087
:10052000E04002465610102040808012365640A00F
:10053000A0A0A04012365640C0404040E0024656BF
:100540006090106080F0024656F0206010906002CB
:1005500046562060A0F02020024656F080E0109021
:10056000600246566080E0909060024656F010208F
:10057000204040024656609060909060024656606F
:100580009090701060122555C0C000C0C011365642
:10059000606000604080123656204080804020031A
:1005A0004353F000F012365680402020408012362F
:1005B0005640A020400040015858304898A8A890C4
:1005C0004030024656609090F09090024656E0907F
:1005D000E09090E00246566090808090600246561F
:1005E000E090909090E0024656F080E08080F0022B
:1005F0004656F080E0808080024656609080B09041
:10060000600246569090F0909090123656E040402E
:100610004040E002465670202020A04002465690FE
:10062000A0C0A0A0900246568080808080F0024644
:100630005690F0F090909002465690D0F0B0B09066
:10064000024656609090909060024656E09090E08E
:100650008080014757609090D0B06010024656E00D
:100660009090E09090024656609040209060123644
:1006700056E0404040404002465690909090906036
:10068000024656909090906060024656909090F08E
:10069000F09002465690906060909002565688887E
:1006A00050202020024656F010204080F01236568E
:1006B000E080808080E0024656808040201010124A
:1006C0003656E020202020E016325240A001415151
:1006D000F0162252804002445470909070024656A8
:1006E0008080E09090E01234546080806002465632
:1006F00010107090907002445460B0C06002465672
:10070000205040E040400145556090701060024626
:10071000568080E09090901236564000C04040E0F5
:100720001137572000202020A0400246568080909C
:10073000E09090123656C040404040E0025454D001
:10074000A8A8A8024454E09090900244546090906D
:1007500060014555E090E080800145557090701033
:1007600010024454A0D0808012345460C020C002D3
:1007700046564040E0405020024454909090701201
:100780003454A0A0A04002545488A8A85002445455
:10079000906060900145559090709060024454F0D4
:1007A0002040F0024757304020C0204030221656EB
:1007B000808080808080024757C02040304020C029
:1007C00006425250A0FF2B2711241FBECFEFDAE0C4
:1007D000DEBFCDBF11E0A0E0B1E0EEE4FEE602C076
:1007E00005900D92AA3BB107D9F729E0AAEBB1E039
:1007F00001C01D92AB36B207E1F713E0C4EED3E0BF
:1008000004C02197FE010E94A936C33ED107C9F753
:100810000E94E4270C9425370C940000089580E092
:10082000089591E0909371088093700810926F087A
:1008300010926E08089522E090E0281728F4963070
:1008400019F0220F9F5FF9CF892F806A86958CBDA2
:1008500090FD03C081E0963009F480E08DBD0895DD
:10086000FC01908190539A3048F4818180538A3002
:1008700028F42AE0929F800D11240895FB01108234
:1008800080E0089590916108911103C08FEF9FEF70
:1008900008954FB7F89492E09093E9009091F20098
:1008A000292F30E01216130614F421E030E0232B38
:1008B00029F084E6809360088091F100992339F053
:1008C0002091F200211103C02BE62093E8004FBFD6
:1008D0009923E1F290E008952FB7F89483E0809394
:1008E000E9009091E800892F807295FF04C09091F3
:1008F000F20080E4891B2FBF089580915808811170
:100900000DC082E08093540884E0809355081092D3
:1009100057081092560881E08093580884E598E0C3
:10092000089581508F3008F047C0E82FF0E0E55679
:10093000FB4F0C94A936B804BC04AA04B004B40458
:10094000DC04DC04DC04BF04C504C904CD04D30406
:10095000DC04D704809180008F7780938000089515
:10096000809180008F7DF9CF80918000877FF5CFC7
:1009700084B58F7784BD089584B58F7DFBCF80913A
:1009800090008F77809390000895809190008F7DE4
:10099000F9CF80919000877FF5CF8091C0008F774D
:1009A0008093C00008958091C0008F7DF9CF809121
:1009B000C200877F8093C2000895CF93DF93282FD2
:1009C00030E0F901EE58FB4F8491F901ED5AFB4FED
:1009D000D491F901EC5CFB4FC491CC23A1F08111BF
:1009E0000E949104EC2FF0E0EE0FFF1FEA5DFB4F39
:1009F000A591B491EC91ED2381E090E009F480E0C1
:100A0000DF91CF91089580E090E0FACF1F93CF93CC
:100A1000DF93282F30E0F901EE58FB4F8491F90164
:100A2000ED5AFB4FD491F901EC5CFB4FC491CC2300
:100A3000A9F0162F81110E949104EC2FF0E0EE0F27
:100A4000FF1FE85EFB4FA591B4918FB7F894EC912E
:100A5000111108C0D095DE23DC938FBFDF91CF91B9
:100A60001F910895DE2BF8CFCF93DF9390E0FC0128
:100A7000ED5AFB4F24918C5C9B4FFC0184918823A1
:100A8000C9F090E0880F991FFC01E65FFB4FA5912C
:100A9000B491FC01E85EFB4FC591D49161110DC08A
:100AA0009FB7F8948C91209582238C93888128237A
:100AB00028839FBFDF91CF910895623051F49FB793
:100AC000F8943C91822F809583238C93E8812E2B80
:100AD000EFCF8FB7F894EC912E2B2C938FBFEACFEA
:100AE0008251E82FF0E0E250FC4FE49190917B00BE
:100AF0008E2F880F880F80729F7D892B80937B00BB
:100B0000E770E064E0937C0080917A0080648093D9
:100B10007A0080917A0086FDFCCF809178009091D8
:100B2000790008953FB7F89480915008909151084A
:100B3000A0915208B091530826B5A89B05C02F3F3D
:100B400019F00196A11DB11D3FBFBA2FA92F982FF3
:100B50008827BC01CD01620F711D811D911D43E0ED
:100B6000660F771F881F991F4A95D1F708958F92B6
:100B70009F92AF92BF92CF92DF92EF92FF924B0182
:100B80005C010E9492056B017C010E9492056C1928
:100B90007D098E099F09683E734081059105A8F380
:100BA00021E0821A9108A108B10888EEC80E83E0FE
:100BB000D81EE11CF11C81149104A104B10429F791
:100BC000FF90EF90DF90CF90BF90AF909F908F906D
:100BD00008952FB7F89460914C0870914D0880915A
:100BE0004E0890914F082FBF0895DC0180913D0879
:100BF000813021F0823081F0CD01089522E130E092
:100C00000E94BE362AE030E040E050E00E948A3682
:100C1000D901A05CBE4FF0CFA455B54FEDCF809168
:100C2000F7049091F604891B990B0895089508958F
:100C30004091D3045091D4042091D1043091D20436
:100C400042175307B4F49091E8009570E1F3909146
:100C5000E80092FD19C08093F1008091D304909137
:100C6000D40401968F739927892B19F48EEF809302
:100C7000E8008091D3049091D40401969093D40419
:100C80008093D30481E0089580E00895EF92FF926D
:100C90000F931F93CF93DF93F82E192FE62E042F77
:100CA00081E0860F880F0E94180683E00E941806D4
:100CB000CF2DD12FEC0EFD2EF11CCE15DF05A9F0A6
:100CC00007FF11C0FE0184910E941806182F80E0D2
:100CD0000E941806812321968111EFCFCDB7DEB790
:100CE000E6E00C9400378881EFCF81E0F7CFB0E0E9
:100CF000A0E0EDE7F6E00C94E336D82E8A01EB0194
:100D00007B01E40EF51ECE15DF0559F0D7FE0FC0AE
:100D1000FE0184910E94180621968111F4CF0FEFF5
:100D20001FEFC801CDB7DEB7E7E00C94FF3688812E
:100D3000F1CFA1E0B0E0EFE9F6E00C94E63682E016
:100D4000898342E450E06BE271E080E80E9477061C
:100D50000E947D04DC0112960D911C910115110574
:100D600089F0D801ED91FC910280F381E02DBE0164
:100D70006F5F7F4FC801099597FD04C0F80100859A
:100D80001185ECCF89812196E4E00C940237DC01D7
:100D9000ED91FC910190F081E02D09950895EF927D
:100DA000FF920F931F93CF93DF938C017B01D0E0D1
:100DB000C0E0F701EC0FFD1F6491662361F0D801DC
:100DC000ED91FC910190F081E02DC8010995892BEE
:100DD00011F02196EECFCE01CDB7DEB7E6E00C9450
:100DE0000037B0E0A0E0E7EFF6E00C94E0366C01ED
:100DF0007B018B01040F151FEB015E01AE18BF08CC
:100E0000C017D10759F06991D601ED91FC9101907D
:100E1000F081E02DC6010995892B79F7C501CDB781
:100E2000DEB7EAE00C94FC36B0E0A0E0EAE1F7E0DF
:100E30000C94DE366C017B018A0180911B018823B2
:100E400009F45BC080916108882309F456C0809141
:100E5000D70480FF05C08091E00082608093E000AD
:100E6000E801B12C8AEFA82E93E0892E2AE3922E76
:100E7000209711F4BB20D9F10E946C0481110AC0A3
:100E8000AA94AA20D1F161E070E080E090E00E9495
:100E9000B705EECF8C171D0611F00CF08C2F9FB705
:100EA000F8948092E9002091E80025FD02C09FBFE0
:100EB000DFCF282F30E0C21BD30BF701815020F089
:100EC00041914093F100FACFE20EF31EBB2021F0D6
:100ED0009092E800B12CEBCF8091E80085FDE7CF40
:100EE0009092E800BB24B394209709F3F3CF84E6F3
:100EF0008093D604101611063CF081E090E0F601D4
:100F00009383828310E000E0C801CDB7DEB7ECE048
:100F10000C94FA36A1E0B0E0E0E9F7E00C94E83692
:100F20006983DC01ED91FC910280F381E02D41E0C9
:100F300050E0BE016F5F7F4F09952196E2E00C946F
:100F4000043783E08093E9008091F200882319F050
:100F50008AE38093E80008950E946C0490E008956D
:100F6000FC018485958597FD05C02FEF3FEF358700
:100F7000248708950E9442040895CF93DF93EC01E3
:100F80008C859D8597FF04C00E9442049D878C87B5
:100F90008C859D85DF91CF910895FC018485958591
:100FA00097FD0BC09FB7F89482E08093E900809191
:100FB000F2009FBF90E0019608959FB7F89482E0F9
:100FC0008093E9008091F2009FBF90E0089580E057
:100FD0000895DC011696ED91FC91179712968C916D
:100FE000481B477081E090E001C0880F4A95EAF7FE
:100FF000E60FF11D3081222319F0832B80830895A1
:1010000080958323FBCFFC01DB0111964C91119756
:101010008281481760F08381841748F06C91858144
:10102000681728F4CF0114962C910E94E9070895BF
:10103000FC0180819281980F92832181921760F444
:1010400094819F5F94839381890F821710F08FEFB3
:10105000820F838381E0089580E00895FC0112826D
:1010600080818150838314820895DB01ED91FC918E
:10107000099508950F931F93CF93DF938C01CDE2D1
:10108000D9E0EDA9FEA982E00995EDA9FEA981E0CC
:10109000099530E020E044E1B80181E399E00E9445
:1010A000350824E639E047E1B80181E399E00E9480
:1010B0003508EDA9FEA980E00995DF91CF911F9138
:1010C0000F9108950F931F93CF93E0913F09F091F3
:1010D0004009309719F081E399E0099500913309AF
:1010E00010913409E0916209F091630982E0099559
:1010F000E0916209F091630981E0099530E020E018
:1011000045E1B80181E399E00E943508C82F8823A2
:1011100041F024E639E047E1B80181E399E00E941B
:101120003508E0916209F091630980E009958C2F00
:10113000CF911F910F910895962FEDE2F9E066810E
:10114000778180A391A32DE439E042E381E399E024
:101150000E9435080895B0E0A0E0E1EBF8E00C94BF
:10116000E236C82F162FD42F082F041B481710F073
:10117000042F081B211740F4F12EF21A0F15D0F09E
:10118000DC1788F1D12C0FC0F22EF11A0F15F0F5F3
:10119000802F0F2DF82E8D2FD22F282F8C2FC12F7F
:1011A000182FDD24D394E02EE694121718F1CC24E6
:1011B000CA9422C0802F0F2DF82E812F1D2FD82FDB
:1011C0008C2FC22F282FEDCF612F8C2FDD2011F017
:1011D0006C2F812F0E949C08EF18E7FE02C01C0DA7
:1011E000E00ECF5F0CC0E02EE6948D2FDC2FC82FD1
:1011F000122FD12CCC24C394DF3F09F4DEEFDC178F
:1012000018F7CDB7DEB7E8E00C94FE36DC1708F02F
:10121000B9CFE02EE6948D2FDC2FC82F122FD12CC2
:10122000C6CFA1E0B0E0E7E1F9E00C94E8369E011A
:101230002F5F3F4F47E40E94350889812196E2E005
:101240000C940437A1E0B0E0E8E2F9E00C94E83651
:101250009E012F5F3F4F46E40E9435088981219609
:10126000E2E00C940437B0E0A0E0E9E3F9E00C948C
:10127000E1368C01D42EE901FB01E280F380F2E338
:101280004F1709F469C0F417A8F08CE2481709F465
:1012900063C0EDE24E17C9F0F7E14F1759F19E0117
:1012A0004D2DB701C8010E943508CDB7DEB7E9E082
:1012B0000C94FD3686E4481709F443C0E7E44E1762
:1012C00009F445C0FBE34F13EACFB701C8010E9400
:1012D0001109C980C094C80EB701C8010E94220933
:1012E00098819095890F8883C9828B818E5F8370E6
:1012F0008B8342C047E1B701C8010E943508B7019E
:10130000C8010E942209BA80B094B80EB701C80182
:101310000E942209D880D094D80EB701C8010E943B
:101320001109CB80C094C80EB701C8010E941109F1
:1013300099819095890FB882C982DA828B8381E086
:10134000B4CFB701C8010E9422098883F8CFB70142
:10135000C8010E941109F9CFB701C8010E94110903
:10136000C980C094C80EB701C8010E9422099881A3
:101370009095890F8883C9829E014D2DB701C801C0
:101380000E943508DCCFCF93DF93EC016A817B812B
:101390000E94220988836A817B81CE010E94110903
:1013A00089836A817B8130E020E048E4CE010E949D
:1013B00035088B879E012D5C3F4F6A817B8147E119
:1013C000CE010E943508DF91CF910895CF93DF932E
:1013D000C0913309D0913409E0916209F091630919
:1013E00082E0099530E020E04AE0BE0181E399E027
:1013F0000E943508C82FE0916209F091630983E0EB
:101400000995E0916209F091630980E00995CC2388
:1014100029F081E399E00E94C309C1E08C2FDF919C
:10142000CF9108950B96FC01849108950A96FC01D2
:1014300084910895FC01849108950E941A0A8823DA
:1014400021F0823011F083E0089586E00895FC01D8
:10145000E60FF11D849190E0982F88273196E49152
:101460008E0F911D089568E00E94270A089566E096
:101470000E94270A0895B0E0A0E0E1E4FAE00C94AD
:10148000DB36EC01E62EF42EC22E0C811D81C80144
:101490000E941A0AD82E8C819D810E941D0A982EC6
:1014A00021E0AA24AA94D21202C02FE0A22E8C819D
:1014B0009D810E94160AD82E8C819D810E94120A5D
:1014C000B82E8C819D810E94330AE0E6EC1578F4F9
:1014D000009769F0080F191F91E6D92EBC14C0F4CB
:1014E000188A1B8A1C8A198A1A8A80E0A0C08C81FB
:1014F0009D810E94370AF0E4FC1538F4009729F02A
:10150000080F191F81E4D82EE9CF0F5E1F4FE6CFD9
:10151000BD1430F3892D90E0F80124912F3F31F470
:101520000F5F1F4FBD14E1F2D394F6CFCD1072C000
:101530008C819D810E941A0A98012F5F3F4FF8010C
:10154000882319F0823009F04EC084918B8BF90109
:1015500024912C8BF8013396E491E88BF8013496B2
:10156000E491E98BF8013596E491EA8B01151105B8
:1015700009F4BBCF8C819D810E941D0A3C89F31A1E
:101580009A89F91A9FEF930F9F0D2CA94EA94F1519
:1015900008F449C0921718F49F1508F047C02B892A
:1015A0009989E90E9FEF920F9E0D4BA95DA95E15DB
:1015B00008F442C0941718F49E1508F037C0080FBD
:1015C000111D295F722E7694769476946F2C630E9B
:1015D0005E01FCE1AF0EB11C872C912CF61431F1A9
:1015E0005E2C68013FC08491982F9F7092509A8B17
:1015F00082958F70898BF9012491822F8F708C8B4B
:1016000022952F702B8BF8013296E491E295EF70C2
:10161000E88BACCF3296E491EA21E80FF92FF11D67
:101620000E0F1F1F7FCF921708F0B6CF8889CDB756
:10163000DEB7EFE00C94F736941708F0BDCFF6CF85
:10164000F60184916A817B815C8EFD8E1F8E8E8F68
:1016500095014BE3CE010E943508FFEFCF1ADF0A58
:1016600028E0520E8C2D801B871550F3080D191D94
:10167000F394B4CFEF92FF920F931F93CF93DF9326
:10168000F82E062FE42E152FE0914609F091470918
:1016900081E399E00995080FCE2DD12F10E0299113
:1016A000211106C0812FCDB7DEB7E6E00C940037DC
:1016B000402F6F2D81E399E00E943B0AF80E180F2E
:1016C000EECFFF920F931F93CF93DF93D82FF62E79
:1016D0008A01E0914609F091470981E399E0099573
:1016E000F80EC0E0F8012491222359F04F2D6D2F00
:1016F00081E399E00E943B0AD80FC80F0F5F1F4F8C
:10170000F1CF8C2FCDB7DEB7E5E00C9401372EEC8E
:1017100037E0009709F40895F9013197F1F701973F
:10172000F8CF8EBD0DB407FEFDCF8EB50895860FA0
:10173000911DFC0183A18F3F19F0642F0E940605C3
:101740000895EF92FF920F931F93CF938C01C42FB4
:1017500079016150673008F043C0E62FF0E0ED54A6
:10176000F44F0C94A936BA0BF70BFC0B070C0D0CBD
:10177000170C220C7C0183E2E80EF11C005D1F4F68
:10178000F70181917F018F3F49F061E00E943405AC
:1017900061E0F701319780810E940605E016F106AD
:1017A00079F761E08FE00E94340560E08FE00E94ED
:1017B000060561E080E10E94340560E080E10E945E
:1017C000060561E081E10E94340561E081E10E944B
:1017D00006051CBC80E58CBDC23010F481E08DBDD7
:1017E00081E0CF911F910F91FF90EF90089561E0FC
:1017F000C8010E94970BF4CF411103C041E062E0A1
:10180000F7CF40E064E00E94970B40E0F8CFFC0186
:1018100083A160E08F3F21F3EBCF842F0E94910BD7
:10182000DFCFF70181917F010E94910BC150C1115F
:10183000F8CFD6CFF70184910E94910BFFEFEF1AFA
:10184000FF0AC150C111F6CFCBCFDB011496ED9149
:10185000FC9130E020E065E009950895DB011496E5
:10186000ED91FC9130E020E062E009950895DB0104
:101870001496ED91FC9130E020E063E00995089525
:10188000B0E0A0E0E6E4FCE00C94E2368C017B01E1
:101890006A0180E0F601C491811110C081E0CF3F60
:1018A00049F04C2FB701C8010E94250C882309F488
:1018B00044C080E0BFEFCB1ADB0AECCF4FEFCF3F45
:1018C00089F3CE3FD9F1C03FA0F7C03E38F04C2F8E
:1018D0004F70B701C8010E942E0CEBCFC03D38F00D
:1018E0004C2F4F70B701C8010E94370CE2CFC03CAB
:1018F000F8F0D7011496ED91FC9130E020E040E043
:1019000064E0C8010995C295C07FCE5FD0E0CE01EA
:101910000E94870BD7011496ED91FC9130E020E0F6
:1019200041E064E0C8010995CE010E94870BC1CF58
:10193000C7FDBFCF8C2F90E0F8CF80E0CDB7DEB7EA
:10194000E8E00C94FE362091B704260F3327331FAE
:1019500029303105ECF42091C304FC0190E080E0D3
:10196000243069F082E00895A091B7042191AC0180
:1019700041555B4FA40FB52FB11D2C9301968617CF
:1019800098F38091B704680F6093B70480E00895DE
:1019900081E008951092C30481E08093C504109201
:1019A000C40461E082E00E94060561E083E00E94D9
:1019B0000605E9EBF0E080818E7F808380818D7F5A
:1019C000808380E28093B80085E48093BC00089512
:1019D000CF93DF9391E09093AE048823B9F0C09148
:1019E000B800D091BA008091BC008A7B8093BC0083
:1019F00060E082E00E94060560E083E00E94060548
:101A00000E94CA0CD093BA00C093B800DF91CF9166
:101A100008950895E091F6048091F704E81730F4F2
:101A2000F0E0E757FB4F808190E008958FEF9FEF44
:101A300008959091F6048091F7042FEF3FEF9817E7
:101A400048F4E92FF0E0E757FB4F208130E09F5F3B
:101A50009093F604C9010895B0E0A0E0E2E3FDE050
:101A60000C94E2367C01CB018A012091710822237B
:101A700089F0EB016B01C40ED51ECC15DD0569F0B4
:101A80006991D701ED91FC910190F081E02DC701A2
:101A90000995F3CF642F0E94A30CC801CDB7DEB720
:101AA000E8E00C94FE36A1E0B0E0E9E5FDE00C943E
:101AB000E8366983209171082223F9F020916E089D
:101AC000203258F021E030E0FC013383228390E0A3
:101AD00080E02196E2E00C94043780916F08E82FB3
:101AE000F0E0E759FB4F998190838F5F80936F08F7
:101AF00080936E0881E090E0ECCF61E0CE0101962A
:101B00000E94A30CF7CFB0E0A0E0E9E8FDE00C9460
:101B1000E236D0916E0881E0D93008F09CC0C091C7
:101B200070080E9492056B017C018091C3048111B1
:101B30006CC082E08093C30481E08093C5048FEF82
:101B40008093C2041092CF04D093CE04A9E6B4E0EF
:101B5000E6ECF4E080E0D81389C01092D0048091C4
:101B6000D004CC0FC82BC093D0048091C404813022
:101B700009F080C01092C4040E9492056B017C01A0
:101B80008091D0048093BB008091AA049091AB0413
:101B9000A091AC04B091AD04892B8A2B8B2BA1F0C2
:101BA0000E9492050091AA041091AB042091AC040C
:101BB0003091AD046C197D098E099F09061717072E
:101BC0002807390708F442C08091BC0083FDD8CFB4
:101BD00085EC8093BC000E9492056B017C01809192
:101BE000C304823009F448C08091C2048F3F09F4D5
:101BF00065C08091C204803209F462C08091C20441
:101C0000803309F45FC084E026C08091AA049091DB
:101C1000AB04A091AC04B091AD04892B8A2B8B2B23
:101C200009F483CF0E9492050091AA041091AB049D
:101C30002091AC043091AD046C197D098E099F0987
:101C4000061717072807390708F06FCF8091A904F6
:101C50000E94E80C85E010926F0810926E081092B6
:101C60007108CDB7DEB7E8E00C94FE369D919193F4
:101C70008F5F71CF85EEADCF8091AA049091AB04B8
:101C8000A091AC04B091AD04892B8A2B8B2B09F465
:101C9000A6CF0E9492050091AA041091AB04209156
:101CA000AC043091AD046C197D098E099F090617AB
:101CB00017072807390708F092CFC8CF80E0CBCFAD
:101CC00082E0C9CF83E0C7CF8EBD0DB407FEFDCF44
:101CD00008958FEF8EBD0DB407FEFDCF8EB508952C
:101CE00061E0FC0180810E9406058FEF0E94640E76
:101CF0000895B0E0A0E0EFE7FEE00C94E1368C013F
:101D0000C62FD22FD32EC42EB52EFC0182810E9465
:101D10001B0460E0F80180810E9406050E94E9052D
:101D20007B010E94690E8F3F39F00E94E9056E1910
:101D30007F0968357240A8F38C2F80640E94640E7E
:101D40008B2D0E94640E8C2D0E94640E8D2D0E949E
:101D5000640E8D2F0E94640E87E8C11101C085E9D1
:101D60000E94640ECC3011F40E94690EC0E00E9403
:101D7000690EF801838387FF04C0CF3F11F0CF5F66
:101D8000F6CFCDB7DEB7E9E00C94FD360F931F9385
:101D9000CF93DF93EC0189018C81833039F089E0A6
:101DA000440F551F661F771F8A95D1F79A01AB0123
:101DB00068E1CE010E94790E882339F086E089839C
:101DC000CE010E94700E80E025C08EEF0E94640E4E
:101DD000F80180818EBD818132961E5F0DB407FEB1
:101DE000FDCF8EBDE017F10711F08191F7CF0DB453
:101DF00007FEFDCF8FEF0E94640E8FEF0E94640EEE
:101E00000E94690E8B838F71853049F4CE010E9448
:101E1000700E81E0DF91CF911F910F91089583E1C2
:101E20008983CE010E94700ECBCFB0E0A0E0EBE141
:101E3000FFE00C94E236C0916B08D1E0C0FF17C000
:101E400000916C0810916D08C0906708D0906808E8
:101E5000E0906908F0906A0829E632E0B701A6012F
:101E6000C8010E94C60ED82F811107C0D0E08D2F67
:101E7000CDB7DEB7E8E00C94FE36C1FD04C0CE7FDE
:101E8000C0936B08F4CF809166088230C0F3409114
:101E900062085091630860916408709165084C0D68
:101EA0005D1D6E1D7F1D29E632E0C8010E94C60E31
:101EB0008111E5CFDBCFEF92FF920F931F93CF936A
:101EC000DF93EC0179018C81833039F089E0440F94
:101ED000551F661F771F8A95D1F79A01AB0161E103
:101EE000CE010E94790E882359F084E08983CE01C7
:101EF0000E94700E80E0CDB7DEB7E6E00C940037AC
:101F00000E94E9058B010E94690E8B838F3F49F483
:101F10000E94E905601B710B6D327140A0F381E1F5
:101F2000E5CF8E3F11F08FE0E1CF8FEF8EBDF7014F
:101F3000D701A150BE4F9FEF0DB407FEFDCF8EB568
:101F40009EBD8193AE17BF07B9F70DB407FEFDCF55
:101F50008EB58C931B820E94690E0E94690ECE0181
:101F60000E94700E81E0C7CFCF92DF92EF92FF9276
:101F7000CF936B017C01C42F809167089091680812
:101F8000A0916908B0916A088C159D05AE05BF0542
:101F9000C1F00E94150F811108C090E080E0CF9140
:101FA000FF90EF90DF90CF900895C2FF13C0109282
:101FB0006B08C0926708D0926808E0926908F092B6
:101FC0006A08C37080916B08C82BC0936B0889E6C0
:101FD00092E0E5CF29E632E0B701A60180916C08D6
:101FE00090916D080E945B0F8111E1CFD6CF8F9247
:101FF0009F92AF92BF92CF92DF92EF92FF92CF93D8
:1020000024EF38E030936D0820936C0810920C098F
:1020100042E050E060E070E04093F9085093FA0825
:102020006093FB087093FC0810926B084FEF5FEF12
:10203000BA014093670850936808609369087093E9
:102040006A08882309F44EC040E060E070E0CB01EC
:102050000E94B40F009759F480E0CF91FF90EF9069
:10206000DF90CF90BF90AF909F908F900895FC012C
:10207000E254FE4F20812F7779F78A539E4FFC015F
:10208000C080D180E280F380C114D104E104F10466
:1020900019F340E0C701B6010E94B40FFC01892B7F
:1020A000D9F28385948581159240B1F68089882381
:1020B00099F226853785232B79F2809366089585DA
:1020C0009093FD088FEF890F8093FE08C0E081E0B8
:1020D000981761F0880FCF5FC830D1F787E0809301
:1020E0000309BACFC12CD12C7601D3CFC0930309F9
:1020F0002689378950E040E02115310521F424A1DB
:1021000035A146A157A120936208309363084093FC
:102110006408509365088685978546015701880EA7
:10212000991EA11CB11C8092080990920909A092E5
:102130000A09B0920B098189928990930E098093C4
:102140000D09A089B0E00E94C536DC01CB01880DE5
:10215000991DAA1DBB1D80930F0990931009A09390
:102160001109B09312092189328945E0220F331FEA
:102170004A95E1F721503E4F232F33272695820FB2
:10218000931FA11DB11D8093040990930509A0938D
:102190000609B093070983889488B12CA12C811477
:1021A000910421F480A091A0A2A0B3A0C81AD90ADA
:1021B000EA0AFB0AC80CD91CEA1CFB1C04C0F694F2
:1021C000E794D794C794CA95D2F7C092FF08D092EB
:1021D0000009E0920109F092020985EFC8168FE02C
:1021E000D806E104F10420F48CE080930C0934CF8C
:1021F00080E125EFC2162FEFD206E104F10468F06A
:1022000084A595A5A6A5B7A580930F09909310095D
:10221000A0931109B093120980E280930C0981E028
:102220001CCFB0E0A0E0E7E1F1E10C94DA36EC017C
:10223000423051056105710530F480E0CDB7DEB75D
:10224000E0E10C94F6368E819F81A885B9850196D0
:10225000A11DB11D84179507A607B70770F38B89D9
:10226000803141F5452E562E672E77248F8598892B
:10227000A989BA89840D951DA61DB71D480159016C
:102280006A017B0143E0BC01CD010E94B40F0097BD
:10229000A1F22B89B701A6012031E1F45527662769
:1022A0007727440F551F480F591FFA0111830083E8
:1022B00081E0C4CF803209F68F859889A989BA89CF
:1022C0002A013B01E7E07694679457944794EA9596
:1022D000D1F7D0CF4F77552766277727440F551F63
:1022E000440F551F480F591FFA0180829182A28224
:1022F000B382DECFB0E0A0E0E0E8F1E10C94E2369A
:10230000FC01423051056105710530F480E0CDB724
:10231000DEB7E8E00C94FE3686819781A085B18512
:102320000196A11DB11D84179507A607B70770F385
:102330008389803179F5BB27A72F962F852FC784F6
:10234000D088E188F2888C0D9D1DAE1DBF1DE9016E
:102350006A017B018F0142E0BC01CD010E94B40FF4
:102360000097A1F2F8012389B701A601203119F5E0
:10237000552766277727440F551F480F591FFA0125
:1023800080819181B0E0A0E088839983AA83BB8398
:1023900081E0BDCF803209F0B9CFC784D088E18811
:1023A000F288DB01CA01C7E0B695A7959795879596
:1023B000CA95D1F7C8CF4F77552766277727440F9F
:1023C000551F440F551F480F591FFA0180819181F5
:1023D000A281B381BF70D8CFA4E0B0E0E2EFF1E119
:1023E0000C94E4368C01FC0186899789A08DB18D0F
:1023F00089839A83AB83BC83F12CE12C49815A8178
:102400006B817C819E012F5F3F4FD80114968D9187
:102410009C910E947A11882349F1D8011496ED917C
:10242000FC918481E80EF11CE114B0E1FB0650F54B
:1024300049815A816B817C8183898031D9F481E023
:10244000483F5F4F61057105C8F2A70170E060E089
:1024500099E0440F551F661F771F9A95D1F7D80151
:1024600052964D935D936D937C9355972496E6E039
:102470000C94003781E0483F5F4F6F4F7F4008F476
:10248000BDCFE3CF80E0F2CFCF93DF93FC01228179
:10249000222321F080E0DF91CF910895FB01EC0130
:1024A0007D836C838389803129F582E08A831E8A4B
:1024B0001F8A188E198E84899589B0E0A0E025E0E6
:1024C000880F991FAA1FBB1F2A95D1F78A8B9B8B58
:1024D000AC8BBD8B81E089831E821F821886198692
:1024E0001A861B861C861D861E861F86188A198AD8
:1024F0001B82D1CF803271F683E08A8386899789E7
:10250000A08DB18D8E8B9F8BA88FB98FCE010E942D
:10251000EC118111DFCFBECFB0E0A0E0E2E9F2E143
:102520000C94DE36EC018A81811106C080E0CDB7C3
:10253000DEB7ECE00C94FA360A891B892C893D89B8
:10254000041715072607370788F34A015B01823015
:1025500031F48A869B86AC86BD8681E0E8CF811403
:102560009104A104B10449F41E821F8218861986C1
:102570001A861B861C861D86F0CF0A851B852C8536
:102580003D85EC81FD81828590E00996B901A80125
:102590004150510961097109082E04C0769567956B
:1025A000579547950A94D2F775016401E1E0CE1A78
:1025B000D108E108F10804C0F694E794D794C794D1
:1025C0008A95D2F7C416D506E606F70620F0012B49
:1025D000022B032B11F58E899F89A88DB98D8E83CF
:1025E0009F83A887B9878E010A5F1F4FC114D1044A
:1025F000E104F10409F4ADCF4E815F8168857985EE
:1026000098018C819D810E947A1191E0C91AD108AC
:10261000E108F1088111EACF89CFC41AD50AE60A88
:10262000F70AE1CFACE0B0E0E8E1F3E10C94DA3690
:102630004C01DC011496AD90BC90F5018681978128
:10264000A085B1859C01AD012F5F3F4F4F4F5F4F7C
:1026500029873A874B875C87D40116964D905D9009
:102660006D907C901997411451046104710409F430
:1026700060C0BFEF4B1A5B0A6B0A7B0A10E0730164
:1026800062011D821E821F821886F5018681978154
:10269000A085B1852D813E814F8158852817390746
:1026A0004A075B0708F068C089859A85AB85BC85B9
:1026B0008C159D05AE05BF0550F482E0C82ED12CC7
:1026C000E12CF12C92E0492E512C612C712C9E01B1
:1026D0002F5F3F4FB701A601C5010E947A118823E1
:1026E00009F44AC089819A81AB81BC81892B8A2BEC
:1026F0008B2B29F1C414D504E604F70409F010E08B
:10270000260137019FEF491A590A690A790A2D8172
:102710003E814F8158852F5F3F4F4F4F5F4F2D8335
:102720003E834F8358873FEFC31AD30AE30AF30A65
:10273000ACCF408051806280738011E0A0CFC41480
:10274000D504E604F70419F7112351F0D701C601A7
:102750000196A11DB11DF50180839183A283B383EE
:102760000FEF1FEF2FEF3FE0B301A201C5010E9461
:102770001111782E811106C0712C872D2C96E0E165
:102780000C94F636D40116964D915D916D917C9125
:102790001997411551056105710539F097018601B9
:1027A000C5010E941111882339F3D4011696CD92E8
:1027B000DD92ED92FC92199756968D919D910D9018
:1027C000BC91A02D892B8A2B8B2BB9F6F401C68ADC
:1027D000D78AE08EF18E818180688183CECFCF93BE
:1027E000DF93EC018A818823A9F1898187FF2DC0BD
:1027F0006E857F858889998941E00E94B40F009792
:1028000049F1EB8120E2E29FF0011124E80FF91F6A
:10281000309701F18081853EE9F08A81823040F471
:102820008A899B89AC89BD89848F958FA68FB78F44
:102830008E899F89938F828F8E899F89A88DB98D6C
:10284000B58BA48B89818F7789830E94150FDF91C7
:10285000CF91089581E0888380E0F9CFCF93DF9313
:10286000EC010E94EF131A82DF91CF910895AF928D
:10287000BF92CF92DF92FF920F931F93CF93DF937C
:102880006C018B01F42EE90180E1481709F49AC02C
:10289000841778F1AAE04A1709F461C0BFE04B172A
:1028A00009F474C0F80102811381F2E3FF1609F400
:1028B000DEC0FF1508F490C085E1F81609F4DCC00D
:1028C000A7E1FA1609F4EDC0B4E1FB1279C0D80112
:1028D0001696ED91FC91179715968C918E0F9F2F60
:1028E000911D11928E179F07E1F7C8010E942E08D3
:1028F00067C0E1E14E1709F46CC0F5E14F13D2CF88
:10290000FB01A280B3804DEF50E0C6010E94400C55
:10291000D50114964C91406BB801C6010E94250C5C
:1029200041E0B801C6010E942E0CF50126813781D5
:10293000D8011496ED91FC91D50115964C9166E065
:10294000C601099581111CC080E0DF91CF911F91D4
:102950000F91FF90DF90CF90BF90AF900895DB0173
:102960001496ED91FC9130E020E043E061E0C60177
:10297000099545E051E0B801C6010E94400C92CF94
:1029800040E0B801C6010E94370C8CCF41E0C6017F
:102990000E94370C40E0B801C6010E942E0C41E8AD
:1029A000B801C6010E94250C488146954695B8019C
:1029B000C6010E94250C40E0B801C6010E94370CF8
:1029C00081E0C3CF41EF50E0B801C6010E94400C46
:1029D000F7CF45EE50E0F8CFE6E4FE1609F46BC001
:1029E000F7E4FF1609F46CC08BE3F812E9CF998184
:1029F0008B8138E0390F813031F0833011F0392F7D
:102A000002C0392F985021E0D80113964C914917F4
:102A100008F420E041E0391708F040E091E0F801C7
:102A20005281351708F490E0322F342B932311F4A0
:102A3000242331F2FA80D12CC12C843048F490E068
:102A4000FC01EA5BFE4FC0808E5B9E4FDC01DC9098
:102A5000F7FE04C0BE01C8010E94030888818C0DE6
:102A6000888389818D0D8983FF0C91F7A9CFBE01E1
:102A7000C8010E940308A4CFC8010E941808882337
:102A800009F462CFD8011696ED91FC91179715962F
:102A90008C918E0F9F2F911D11928E179F07E1F73A
:102AA0008FCF1882F80182818983858181508A8342
:102AB00083818B8385CFD80115968C91888380CFB5
:102AC000F8018181FBCFF894E0914708F0E0E950EC
:102AD000FC4FE491EE23E1F0E150E0933E081092C8
:102AE0001D01F89480918100887F80938100789403
:102AF0008FEF9FEFDC0180931E0190931F01A09345
:102B00002001B093210181E08093220178940895FF
:102B100010923E0881E080931D01EACF60E08111B0
:102B200001C061E087E10E940605089504960E94B5
:102B3000EF130895FC0180819181805D9740843678
:102B4000910590F4828181508C3070F483818150A2
:102B50008F3150F48481883138F485818C3320F4AE
:102B600081E096819C3308F080E00895CF93DF9355
:102B7000D82FC62F88E60E9411046D2F82EC98E0B2
:102B80000E94530D6C2F82EC98E00E94530D82EC52
:102B900098E00E94830D91E0811190E0892FDF91F0
:102BA000CF910895DC01ED91FC910190F081E02D31
:102BB00009950895CF9380911C018F5F8430E0F4D4
:102BC00080931C01E0911C01F0E0E553FF4FC4919C
:102BD0008091D1080E9411046C2F6295660F607677
:102BE0006B6870E082EC98E00E94D21582EC98E06D
:102BF0000E94830DCF91089510921C01E3CFCF93D3
:102C0000C091D90089E10E947005C0FF0CC0893DC8
:102C1000910560F0895F91098B37910550F082E052
:102C200090E0CF91089590E080E0FBCF81E090E0CC
:102C3000F8CF83E090E0F5CFB0E0A0E0E2E2F6E18B
:102C40000C94D836AB01BC01465C564E6F4F7F4F9B
:102C50004E358FEE58076105710508F05EC001EF33
:102C600011E0D0E0C0E0F80185909590A590B49077
:102C70001E018FEF281A380A0E5F1F4FF801859149
:102C80009591A591B49175016401EE24FF244C1532
:102C90005D056E057F05B4F12C013D0166247724A6
:102CA00044165506660677066CF1FC01E819F90929
:102CB0009A01AB012C193D094E095F09A4E6B0E069
:102CC0000E94C5369F01F7FF02C02F5F3F4F359529
:102CD00027958901330F220B330B600F711F821F61
:102CE000931F9F01FF0F440B550B0E948A3664E629
:102CF0006C9FC0016D9F900D11248C589A40280F35
:102D0000391F05C0E101C53AD10509F0ACCFC901B1
:102D1000CDB7DEB7E2E10C94F43628EF3FE7F7CF0A
:102D2000109233081092340881E090E0A0E0B0E007
:102D30008093350890933608A0933708B0933808ED
:102D400043E155E024E068EF7FE790E080E0FC019C
:102D5000EE0FFF1FE40FF51F718360830196843629
:102D60009105A9F7215048535F4F2111EECF0895E7
:102D7000B0E0A0E0EEEBF6E10C94E336EC01D62EE9
:102D80001CAD0BAD7C0184E0E80EF11CE98DFA8DE1
:102D9000C7010995412F480F2D2D602FC7010E94B3
:102DA0003B0A9BAD890F8BAF81E090E0CDB7DEB7DA
:102DB000E7E00C94FF36089590E080E0089580915C
:102DC0003C088230D1F0EFE3F2E02FEF3FE780E004
:102DD00090E81082118212821382358324839783B4
:102DE0008683108611863A9642E0E736F40789F723
:102DF00082E080933C0881E0089580E00895B0E08F
:102E0000A0E0E5E0F7E10C94E136D0E0C0E0C12CB1
:102E1000D12C7601C39480913E02BC2E8E010256C5
:102E20001E4FFE01E856FE4F90E00C2E02C0959515
:102E300087950A94E2F780FF27C084910E94DD0401
:102E4000F801049121E030E0002311F030E020E0AF
:102E50008217930781F420913E02D701C6010B2C03
:102E600004C0880F991FAA1FBB1F0A94D2F7809530
:102E7000822380933E022196C630D10561F6CDB7FC
:102E8000DEB7E9E00C94FD3684910E94DD04F80180
:102E900004910817190679F7D701C6010C2E04C052
:102EA000880F991FAA1FBB1F0A94D2F720913E02D8
:102EB000282B20933E0220910A05822B80930A053D
:102EC000DACFB0E0A0E0E7E6F7E10C94E236D62FE7
:102ED000C42F0E9492056B017C018091C304811173
:102EE00065C081E08093C3048093C5049FEF9093F5
:102EF000C2041092CF049C0F9093CE048093D00410
:102F00008091D004DD0FD82BD093D0048091C404DD
:102F1000813009F07BC01092C4040E9492056B01BD
:102F20007C018091D0048093BB008091AA04909191
:102F3000AB04A091AC04B091AD04892B8A2B8B2BF0
:102F4000A1F00E9492050091AA041091AB04209177
:102F5000AC043091AD046C197D098E099F090617E8
:102F600017072807390708F442C08091BC0083FD89
:102F7000D8CF85EC8093BC000E9492056B017C0148
:102F80008091C304813009F443C08091CF048C1731
:102F900010F4C091CF04A6ECB4E0E9E8F4E080E0DE
:102FA0008C1751F19D9191938F5FFACF8091AA0474
:102FB0009091AB04A091AC04B091AD04892B8A2B05
:102FC0008B2B09F48ACF0E9492050091AA041091DC
:102FD000AB042091AC043091AD046C197D098E09CD
:102FE0009F09061717072807390708F076CF809141
:102FF000A9040E94E80CC0E01092F604C093F70404
:103000008C2FCDB7DEB7E8E00C94FE3685EEB2CF5C
:103010008091AA049091AB04A091AC04B091AD044E
:10302000892B8A2B8B2B09F4ABCF0E949205009140
:10303000AA041091AB042091AC043091AD046C193A
:103040007D098E099F09061717072807390708F019
:1030500097CFCDCF88E60E9411046FE082EC98E014
:103060000E94530D82EC98E00E94830D882319F092
:103070008FEF9FEF089541E068E682EC98E00E94B0
:1030800061178130A9F782EC98E00E94190D08952C
:103090001F93CF93DF93EC0188E60E94110470E048
:1030A00060E082EC98E00E94D21582EC98E00E94E9
:1030B000830D882329F080E0DF91CF911F9108953F
:1030C00047E068E682EC98E00E946117873099F744
:1030D00082EC98E00E94190D982F9F7792959F702F
:1030E0001AE08F70919F800D11248E8382EC98E0FE
:1030F0000E94190D982F9F7792959F708F70919FC6
:10310000800D11248D8382EC98E00E94190D982F78
:103110009F7392959F708F70919F800D11248C8367
:1031200082EC98E00E94190D82EC98E00E94190D43
:10313000982F9F7392959F708F70919F800D11248F
:103140008B8382EC98E00E94190D84FB992790F9FB
:103150008F70919F800D11248A8382EC98E00E94E9
:10316000190D9C0194E0359527959A95E1F72F70FC
:1031700033278F70129F800D112490E08053984F59
:1031800099838883CE010E949A1596CFFB01019006
:103190000020E9F73197AF01461B570BDC01ED9199
:1031A000FC910280F381E02D099508958F929F9202
:1031B000AF92BF92EF92FF920F931F93CF93DF9343
:1031C000CDB7DEB7A1970FB6F894DEBF0FBECDBF67
:1031D0007C01FA01CB0119A2223008F42AE08E0109
:1031E0000F5D1F4F822E912CB12CA12CBF01A50188
:1031F00094010E946836F901CA016A300CF5605DDD
:10320000D8016E938D01232B242B252B79F790E089
:1032100080E0109721F0BD01C7010E94C618A19659
:103220000FB6F894DEBF0FBECDBFDF91CF911F91D7
:103230000F91FF90EF90BF90AF909F908F90089567
:10324000695CDECFCF92DF92EF92FF92CF93DF9354
:103250006C01990FEE08FF08F7FE1BC06DE282E7D4
:1032600098E00E94C706EC0144275527BA014C1983
:103270005D096E097F092AE082E798E00E94D6186E
:103280008C0F9D1FDF91CF91FF90EF90DF90CF903B
:1032900008952AE0B701A60182E798E00E94D618B7
:1032A000F1CF67EB71E00E94C6180895CF93DF93CA
:1032B000BC0182E798E00E94CF06EC0182E798E02B
:1032C0000E9451198C0F9D1FDF91CF910895CF92CD
:1032D000DF92EF92FF92CF93DF936FEC70E082E783
:1032E00098E00E94CF06CDE0D5E0C12CD12C76012C
:1032F000C39460E282E798E00E94C7062AE0B70123
:10330000A60182E798E00E94D6186AE382E798E077
:103310000E94C706E881F0E0EE0FFF1FE25AFC4F63
:10332000649182E798E00E94C706E881F0E0EE0F22
:10333000FF1FE15AFC4F649182E798E00E94C706A4
:103340008881813099F468E282E798E00E94C7069C
:10335000F601EE0FFF1FEA50FB4F808191810E9422
:10336000221969E282E798E00E94C7068FEFC81A27
:10337000D80AE80AF80A219685E0C816D104E104C3
:10338000F10409F0B6CF82E798E00E945119DF916D
:10339000CF91FF90EF90DF90CF900895CF92DF9282
:1033A000EF92FF92CF93DF93EC0167EB70E00E9406
:1033B000CF06C12CD12C76016FEA70E0CE010E94BD
:1033C000CF062AE0B701A601CE010E94D6186CEA0A
:1033D00070E0CE010E94CF06E0913D08F0E0E75298
:1033E000FF4F6491CE010E94C70669E2CE010E94A0
:1033F000C7068FEFC81AD80AE80AF80A84E0C81688
:10340000D104E104F104C1F6CE010E945119DF910B
:10341000CF91FF90EF90DF90CF9008956DED70E029
:1034200082E798E00E94CF06E0913D08F0E0E75285
:10343000FF4F649182E798E00E94C7066CE282E742
:1034400098E00E94C706E0914708F0E0E950FC4F81
:10345000449150E070E060E02AE082E798E00E944A
:10346000D6186CE282E798E00E94C706809149086E
:10347000882359F061E371E082E798E00E94C61862
:1034800082E798E00E94511908956DE282E798E082
:103490000E94C706F5CFCF93DF93EC01BC0182E712
:1034A00098E00E94C61880914908882329F0BE013F
:1034B00086ED98E00E94C618DF91CF91089585EDC2
:1034C0008093BC008091AA049091AB04A091AC04BD
:1034D000B091AD040796A11DB11D23E0B695A79547
:1034E000979587952A95D1F72091BC0024FD03C0BC
:1034F0001092C30408954091AA045091AB046091C6
:10350000AC047091AD04452B462B472B69F3009713
:10351000A105B10541F025E12A95F1F700000197D9
:10352000A109B109E1CF8091A9040E94E80C089596
:10353000AEE0B0E0EEE9FAE10C94D8368C015B0124
:103540002A01DC0112968C911297813009F080C01B
:1035500011968C91119781FF7BC082FD62C0A20100
:1035600070E060E0F80182859385A485B58580953B
:103570009095A095B09584179507A607B70708F40E
:1035800067C07201212C32E0332EF80182859385C9
:10359000A485B585E114F10409F443C184809580C4
:1035A000AC01BD0129E076956795579547952A9519
:1035B000D1F7F401D580D4229C0131703E872D874C
:1035C000D11058C0D80116964D915D916D917C91A6
:1035D0001997232B09F045C1411551056105710566
:1035E00009F4B4C09E012F5F3F4FC4010E947A11BD
:1035F000882371F189819A81AB81BC81F801248192
:103600003581F9012389203149F5883FFFEF9F0774
:10361000A105B10550F5F80186839783A087B1878E
:1036200029C052964D915D916D917C9155971A9656
:103630008D919D910D90BC91A02D481759076A0757
:103640007B0709F48CCFC8010E948C12811187CFAF
:1036500081E0F80180838FEF9FEFF9C0883F2FEF63
:103660009207A2072FE0B207B0F2C8010E9412131E
:10367000882371F3D8011496ED91FC911597169655
:103680006D917D918D919C9119976250710981097D
:103690009109228504C0660F771F881F991F2A95FC
:1036A000D2F72385348545855685620F731F841FA5
:1036B000951F6D0D711D811D911D6D847E8461149A
:1036C000710409F0E4C0E11422E0F20608F06EC0D3
:1036D000D8011A966D907D908D909C901D976D826B
:1036E0007E828F82988652966D907D908D909C9070
:1036F00055972D813E814F81588526153705480500
:10370000590508F4C4C045E00E94B40F009709F4BD
:103710009FCF41016D847E848618970867018E14BF
:103720009F0408F46401A601B5016D847E84860DB2
:10373000971D0E941C37E814F90408F460C00E9429
:10374000150F882309F484CF640159C0F8018689D4
:103750009789A08DB18D0097A105B10509F05BCFC8
:10376000C8010E941213882309F472CFD80114965D
:10377000ED91FC91159716966D917D918D919C918F
:1037800019976250710981099109228504C0660F59
:10379000771F881F991F2A95D2F723853485458581
:1037A0005685620F731F841F951F8DCF2091670868
:1037B000309168084091690850916A0826173707C8
:1037C0004807590769F42FEF3FEFA90120936708D5
:1037D000309368084093690850936A0810926B0808
:1037E0009501AB01BC0180916C0890916D080E941D
:1037F000C60E882309F42CCFC12C82E0D82EF80104
:1038000082859385A485B5858C0D9D1DA11DB11D57
:1038100082879387A487B587AC0CBD1CEC18FD0884
:10382000B4CE4289538964897589481759076A0754
:103830007B0738F42181828B938BA48BB58B206816
:103840002183D80111968C9183FD05C0C2012E966B
:10385000E2E10C94F436C8010E94EF138111F6CF17
:10386000F7CE42505109610971092285CB01BA0195
:1038700004C0660F771F881F991F2A95D2F72385EA
:10388000348545855685620F731F841F951F41E05F
:103890003BCFA1E0B0E0EFE4FCE10C94E8366983B3
:1038A00041E050E0BE016F5F7F4F04960E94981A7E
:1038B00021E030E0019711F030E020E0C9012196CD
:1038C000E2E00C94043704960E94981A0895ABE045
:1038D000B0E0EDE6FCE10C94D8367C018B015F830F
:1038E0004E83322EDB0114968D919C91F7019583C6
:1038F000848340E050E0BA01C8010E948C12212C60
:1039000098012A5F3F4F39872887F8018285938580
:10391000A485B58542885388648875888415950583
:10392000A605B70508F0C8C12281222309F4BCC04E
:10393000218120FFB9C0B301A201481B590B6A0BBA
:103940007B0B481A590A413051056105710519F080
:1039500044244394512C62019E012F5F3F4F390153
:10396000C114D10409F4C9C0D8011A964D915D91D2
:103970006D917C911D974A01B1E09B22F801048072
:10398000F581E02DFB87EA87DB01CA0129E0B695C6
:10399000A795979587952A95D1F78A839B83AC83C2
:1039A000BD83D80112962C91223099F566897789CA
:1039B000808D918D2A813B814C815D81620F731FC7
:1039C000841F951F8114910409F070C0C114B2E0E6
:1039D000DB0608F46BC020916708309168084091BD
:1039E000690850916A08261737074807590709F4EC
:1039F0005DC09301AB01BC0180916C0890916D0892
:103A00000E945B0F882309F44FC0A12CF2E0BF2E67
:103A100062C0AA85BB851596BC90BA81BB22811471
:103A2000910479F4B1100DC0452B462B472B69F555
:103A3000F80186899789A08DB18D86839783A087A9
:103A4000B187D8011496ED91FC91159716966D915A
:103A50007D918D919C91199762507109810991090D
:103A6000228504C0660F771F881F991F2A95D2F7F9
:103A70002385348545855685620F731F841F951FE6
:103A80006B0D711D811D911D9DCFD80116964D9115
:103A90005D916D917C911997288539858A859B85E3
:103AA0000E947A118111CDCF80E0AEC120E032E0DA
:103AB0002819390956012C153D0508F4590140E033
:103AC0000E94B40F009781F3BC01680D791DA50118
:103AD000C3010E941C376A0C7B1CF8018285938508
:103AE000A485B5858A0D9B1DA11DB11D8287938775
:103AF000A487B587CA18DB0833CFF1E04F1651040D
:103B000099F6F80182859385A485B58581509E4FED
:103B1000AF4FBF4F82879387A487B5878090670890
:103B200090906808A0906908B0906A0889E6C82E4D
:103B300082E0D82E712C17C0211006C0F7018686AE
:103B40009786A08AB18A7382D6018C91882309F462
:103B5000B1C0222423947394B0E2CB0ED11CE0E1D7
:103B60007E1609F4D2CED6018C91882329F3853EA6
:103B700019F4222019F3EDCF4BE050E0B6018E810D
:103B80009F810E940F37892B31F737FEE3C08CCF1E
:103B9000D80112968C911297823009F485CF5296F3
:103BA0008D919D910D90BC91A02D803E9F4FAF4176
:103BB000B10508F079CFC8010E941213882309F4D7
:103BC00073CFD8011496ED91FC91159716968D90B0
:103BD0009D90AD90BC901997B2E08B1A9108A10806
:103BE000B108828504C0880C991CAA1CBB1C8A954C
:103BF000D2F783859485A585B685880E991EAA1E61
:103C0000BB1E45E0C501B4010E94B40F6C01892BB5
:103C100009F44ACF80E092E0F6019C011192215014
:103C20003040E1F777247394D8011496ED91FC911C
:103C300015974481C601741690F49601B501A4014C
:103C4000470D511D611D711D80916C0890916D088B
:103C50000E94C60E882309F427CF7394E5CF50E065
:103C600070E060E0E9E0440F551F661F771FEA959A
:103C7000D1F7F80182889388A488B588480D591D2A
:103C80006A1D7B1D52964D935D936D937C93559762
:103C9000712C35C0803151F4C7010E94EC1188238A
:103CA00029F084E0D70112968C93A1C0D701129617
:103CB0001C92FACE22242394832D8274823409F03C
:103CC000F3CE222009F464CFD70113967C9013978A
:103CD0001E966D917D918D919C91519741E00E942E
:103CE000B40F009709F4E0CEF7012381F0E22F9F93
:103CF00090011124820F931F009709F4D5CE20E282
:103D0000FC0111922A95E9F72BE0EE81FF81DC019D
:103D100001900D922A95E1F721E238E2DC015196FB
:103D20003C932E93509740E058E01F965C934E933F
:103D30001E9753963C932E93529759963C932E93ED
:103D4000589757965C934E9356970E94150F882369
:103D500009F4AACEB0E27B9EA00111249A01275952
:103D60003D4FF9018385817121F0832D827109F026
:103D70009DCF8091670890916808A0916908B091E3
:103D80006A08F70186879787A08BB18B73828A01B7
:103D900007591D4FD80154968D919C91B0E0A0E039
:103DA000DC0199278827868B978BA08FB18FF8012C
:103DB000428D538D70E060E0842B952BA62BB72BA2
:103DC000F701868B978BA08FB18FD9011B968C91B1
:103DD000887109F05FCFF801848D958DA68DB78D20
:103DE000F701828B938BA48BB58B81E08283832D2B
:103DF0008F70F701818316821782108611861286D2
:103E000013861486158681E02B96E2E10C94F43635
:103E1000A0E4B0E0EEE0FFE10C94D8361B8E1D8EDE
:103E200019821B826115710531F480E0C05CDF4F9F
:103E3000E2E10C94F436FC0122812111F6CF342EFC
:103E40006B015C0180913101E1E3F1E08F3289F196
:103E50008B0181E3882E81E0982E7E01FBE1EF0E3D
:103E6000F11C3701CE0101962C012196EFAE21976E
:103E70002F2CFE01F596CF010B96AF0120E2219386
:103E8000E817F907D9F7940190E067E0D9018D911F
:103E9000882309F449C08F3209F446C0282F8E3296
:103EA00031F56A3011F298E06AE09D01EFCF8601AA
:103EB000D4CF4F0181918F32E1F3F601811106C019
:103EC00064817581C5010E944412B0CF8281825005
:103ED000823068F364817581CE0101960E9444129C
:103EE000882309F4A2CF8E010F5F1F4FB6CFE1E9FF
:103EF000F4E03491332321F031968313FACF95CF38
:103F0000691708F492CF3FED380F3E3508F08DCF9A
:103F10003FE9380F3A3110F420EE280FFA01E90F8B
:103F2000F11D20839F5FC1CF8DA9803209F47DCF21
:103F30004901F90180812F5F3F4F8F32C9F38823F8
:103F4000D9F021E0B801C7010E94671C882309F459
:103F50006CCFC016D10619F0C8010E942E14942D02
:103F6000852DE614F70421F021969FAD2197822D2F
:103F70008701E92EF82E7DCF232DB801C5010E94BF
:103F8000671C54CFA8E0B0E0E8ECFFE10C94DF360A
:103F90006C01942E7B0120E077FF06C0F194E19440
:103FA000F1088DE2898321E0CE0101965C01280FA2
:103FB000392F311DC7016AE070E00E944036CB0105
:103FC0004AE0B9010E94D835F50101900020E9F7D7
:103FD0003197EA19FB091E2FC60120E201E0010F0B
:103FE000191528F4DC012D93CD01102FF7CFAF0167
:103FF0005527B5010E941C37F601E10FF11D8EE235
:1040000080831E5FF601E00FF11DC7016AE070E0DA
:104010000E944036805D8083F601E10FF11D108221
:10402000812F2896EBE00C94FB36ACE0B0E0EBE19E
:10403000F0E20C94E136B82EC92ECB01BA01D22E93
:104040002AE0AE014F5F5F4F7A010E94A735F7016A
:1040500001900020E9F73197EE19FF091E2F8B2DF3
:104060009C2D1D1528F4DC010D93CD011F5FF9CFA8
:10407000FF27AF014F5F5F4FB7010E941C37812FB1
:104080002C96E9E00C94FD36B0E0A0E0EAE4F0E222
:104090000C94E336EC017B01142FFB01408151812C
:1040A00070E060E000E324E00E9415208DE2D82E4D
:1040B000DC82F701428150E070E060E022E0CE0156
:1040C00005960E941520DF82F701438150E070E0E1
:1040D00060E022E0CE0108960E94152080E28A87E7
:1040E000F701448150E070E060E022E0CE010B96E1
:1040F0000E9415209AE3D92EDD86F701458150E014
:1041000070E060E022E0CE010E960E941520D88A71
:10411000F701468150E070E060E022E0CE01419678
:104120000E9415208EE28B8B105D1C8B1D8ACDB7F3
:10413000DEB7E7E00C94FF36ADE1B0E0E2EAF0E292
:104140000C94E836809100058823F1F0CE01479663
:104150000E9448188823C1F040E0BE01695E7F4F8D
:10416000CE0101960E9444201C8ABE016F5F7F4FE2
:1041700082E798E00E94C61882E798E00E945119F1
:104180006D96E2E00C94043783ED90E00E9456199E
:10419000F7CFABE0B0E0EFECF0E20C94E83681E171
:1041A0009AEC9A8389838091F8049091F9049C8316
:1041B0008B838091FA049091FB049E838D83809180
:1041C000FC049091FD0498878F838091FE04909168
:1041D000FF049A878987FE013196AE01455F5F4FE4
:1041E0002AE5CF013191230FE417F507D9F72B8783
:1041F0004BE050E070E060E00E9412362B96E2E067
:104200000C940437CF92DF92EF92FF921F93CF93DB
:10421000DF9390913C08923049F080E0DF91CF919C
:104220001F91FF90EF90DF90CF900895A82FB0E0FE
:104230009AE0899FF0011124E15CFD4F8085803177
:1042400060F78F5F8087662309F471C0203D8AE89C
:1042500038078FEF480758070CF466C0213395E7FD
:1042600039074105510524F020E335E740E050E0EF
:104270008AE08A9FF0018B9FF00D1124E15CFD4FD5
:1042800040815181628173816901032E000CEE0827
:10429000FF084C0D5D1D6E1D7F1D408351836283A1
:1042A0007383848195812817390714F43583248317
:1042B0008AE08A9FF0018B9FF00D1124E15CFD4F95
:1042C000868197818217930714F437832683EFE35F
:1042D000F2E0DF0118968C911897803108F49DCF99
:1042E0001A9652E0A736B507A9F7CDE0D5E021E050
:1042F00030E040E062E071E013E081859085891351
:104300001AC018822F5F3F4F3A962196253031050B
:10431000A1F741110E94C92086E08093670283E0E3
:1043200080933C0881E07ACF20ED3AE8A1CF8185E7
:104330008F5F8187CCCF811109C086819781A4814D
:10434000B5818A1B9B0B8135910514F06883DACF08
:1043500080819181A281B3810896A11DB11D54E095
:10436000B595A795979587955A95D1F77C015AEF02
:10437000E50EF11C55EFE51651E0F50610F0188337
:10438000C1CFA901440F551F4A505B4F91958195AC
:104390009109DA018D939C93788341E0B3CF1F920A
:1043A0000F920FB60F9211242F933F938F939F93E9
:1043B000AF93BF9380914C0890914D08A0914E0807
:1043C000B0914F0830914B0826E0230F2D3758F558
:1043D0000296A11DB11D20934B0880934C08909329
:1043E0004D08A0934E08B0934F08809150089091CB
:1043F0005108A0915208B09153080196A11DB11D1A
:104400008093500890935108A0935208B09353089A
:10441000BF91AF919F918F913F912F910F900FBEC0
:104420000F901F90189529E8230F0396A11DB11D29
:10443000D2CF1F920F920FB60F9211248F939F939A
:104440008091E1009091E100937F9093E10083FFE0
:104450000FC01092E90091E09093EB001092EC00F5
:1044600092E39093ED001092610898E09093F00031
:1044700082FF1CC093E09093E9009091F200992391
:1044800019F09AE39093E8009091D604992329F0CB
:104490009091D60491509093D604909160089923FE
:1044A00029F09091600891509093600884FF18C0A3
:1044B0008091E2008E7E81608093E2008091E10035
:1044C0008F7E8093E1008091D7048E7E80618093FF
:1044D000D7049F918F910F900FBE0F901F9018954A
:1044E00080FFF7CF8091E2008E7E80618093E200B2
:1044F0008091E1008E7E8093E1008091D7048E7ED2
:104500008160E5CF1F920F920FB60F921124CF92C8
:10451000DF92EF92FF920F931F932F933F934F934E
:104520005F936F937F938F939F93AF93BF93EF931B
:10453000FF93CF93DF93CDB7DEB76C97DEBFCDBFD0
:104540001092E9008091E80083FF2FC089E0FE010E
:104550007596EE2EDF2E815029F09091F100908318
:104560003196F9CF84E68093600882EF8093E8006B
:104570008D8987FF39C09091E80090FFFCCF982F7C
:10458000907609F033C19E894F89588D2F89F88C18
:10459000911131C0803861F58091D8048093F10089
:1045A0001092F1008EEF8093E8006C960FB6F894AD
:1045B000DEBF0FBECDBFDF91CF91FF91EF91BF91D5
:1045C000AF919F918F917F916F915F914F913F91AB
:1045D0002F911F910F91FF90EF90DF90CF900F9050
:1045E0000FBE0F901F9018959EEF9093E800C7CFD5
:1045F0001092F100D5CF913059F48111D3CF4130D1
:10460000510581F68091D8048D7F8093D804CACF5C
:10461000933049F48111C6CF4130510519F680918C
:10462000D8048260F2CF953041F48091E80080FF99
:10463000FCCF20682093E300B5CF963009F0A8C0E6
:104640000B8D1C8D22E01092E9001092D404109280
:10465000D304F2122EC01092D2041092D1040E9400
:1046600099061F8299E09983FA8291E09E8390EAED
:1046700098879AEF99872091D3043091D404275FCB
:104680003F4F3C832B838D831092E9001092D4041A
:104690001092D3041093D2040093D10449E050E067
:1046A000BE016F5F7F4F80E00E9477060E949906EF
:1046B00079CF1093D2040093D1040E947D04DC01D1
:1046C00012960D911C910115110509F457C1D801DD
:1046D000ED91FC910480F581E02D6E2D7D2DC801BA
:1046E0000995009709F045C1F80100851185EBCFC8
:1046F000F3E0FF120EC08F89882309F440C0823096
:1047000061F440E864E083E991E00E94460681118B
:1047100049CF81E28093EB0048CF813029F440E813
:104720006FE083E891E0F1CF833099F70E947D0438
:10473000DC011296ED90FC908E010F5F1F4F680117
:10474000E114F10479F0D701ED91FC910680F78135
:10475000E02DB801C7010995080F111DF701E0848C
:10476000F184EECFD8011C92F60101900020E9F708
:104770003197BF016C197D0940E0C601C6CF6DE6D7
:1047800071E0FB01449150E080E80E9477060ACF77
:10479000973009F4BECF983021F481E08093F10086
:1047A00001CF993009F0FECE837009F0B2CFEBE46F
:1047B000F1E081E031E096E32191222371F08093D2
:1047C000E9003093EB00DF0111972C912093EC006E
:1047D0009093ED008F5F873079F78EE78093EA0042
:1047E0001092EA008F8980936108DCCE8B8D9C8DBE
:1047F0001092E9001092D4041092D3049093D20442
:104800008093D104898D81119AC08E899D89913AB6
:1048100049F4813209F07DCF47E050E064E171E076
:1048200080E0B3CF913209F074CF833269F48F897D
:10483000988DB0E0A0E080930A0190930B01A093C3
:104840000C01B0930D01AECE8032A9F48091E80046
:1048500082FFFCCF88E0E4E1F1E0815029F0909103
:10486000F10090833196F9CF84E6809360088BEF56
:104870008093E80097CE823209F094CE8F8980939E
:104880001B01EEEFFFE7859194918B3F9C4D51F119
:10489000E0E0F8E08091140190911501A0911601DB
:1048A000B0911701803B9440A105B105F1F48091CE
:1048B0001B0180FD1AC0EE3F8AE0F80789F587E703
:1048C00097E791838083809160008093D50488E18D
:1048D0009BE00FB6F894A895809360000FBE90936C
:1048E000600060CEEEEFFAE0D5CF8081918187370E
:1048F000974709F057CEA895809160008861809312
:1049000060008091D50480936000EE3F2AE0F207BA
:1049100089F08091FE0A9091FF0A9183808342CEB4
:10492000808191818737980751F29093FF0A809395
:10493000FE0AC5CF1092FF0A1092FE0A33CE0E94E3
:104940007D04DC0112960D911C910115110509F4ED
:10495000E0CED801ED91FC910190F081E02D6E2D1B
:104960007D2DC801099581111DCEF80100851185A5
:10497000ECCF181619060CF415CECBCEF1E0FF12D1
:10498000B7CE61E771E0FDCE1F920F920FB60F9286
:1049900011242F933F934F935F936F937F938F9344
:1049A0009F93AF93BF93EF93FF938091B900887F5C
:1049B000803609F44AC0F0F5883209F4A7C018F52A
:1049C000803109F49BC0B8F4882309F4F9C0883019
:1049D00009F494C0FF91EF91BF91AF919F918F9196
:1049E0007F916F915F914F913F912F910F900FBEEB
:1049F0000F901F901895883109F488C0803251F7C4
:104A00008093C20414C0803409F49DC040F4803304
:104A1000B9F38833F9F68093C20485ECB0C08035D1
:104A200009F485C0883509F496C0883499F60E9447
:104A30005F1AD0CF883909F48CC038F5883729F04F
:104A400050F4883611F0803729F683E08093C30450
:104A50001092C10457C0883809F47BC0803919F01E
:104A6000803809F0B7CF8091C104883008F071C058
:104A7000E091C10481E08E0F8093C1048091BB005E
:104A8000F0E0E754FB4F80833DC0803B39F0E0F419
:104A9000803A09F479C0883A09F09CCF84E0809389
:104AA000C3041092B8041092B704E091D904F091B5
:104AB000DA0409958091B70481110FC081E08093D9
:104AC000B7041092AF0409C0803C09F4A6CF883C1B
:104AD00009F4A3CF883B09F07DCFE091B80481E0D1
:104AE0008E0F8093B804F0E0E155FB4F80818093F6
:104AF000BB009091B8048091B70429C08091D00484
:104B00008093BB0085EC8093BC0064CF9091CF0470
:104B10008091CE04981758F5E091CF0481E08E0F74
:104B20008093CF04F0E0EA53FB4F8081E9CFE0911E
:104B3000CF0481E08E0F8093CF048091BB00F0E022
:104B4000EA53FB4F80839091CF048091CE04981755
:104B5000C8F285E8D8CFE091CF0481E08E0F809332
:104B6000CF048091BB00F0E0EA53FB4F808380913B
:104B7000C50481115CCF81E08093C40484EA8093F2
:104B8000BC001092C30426CF85EC8093BC00109229
:104B9000C3048091C104883030F4E091C104F0E096
:104BA000E754FB4F10826091C10470E0E091DB0498
:104BB000F091DC0489EB94E009951092C1040ACFCE
:104BC0001092C20434CF1F920F920FB60F9211248D
:104BD0002F933F938F93809168028F5F8093680239
:104BE00020910801309109018217130668F0109294
:104BF000680285E08093090580918100887F809319
:104C0000810081E080934A088F913F912F910F900E
:104C10000FBE0F901F9018951F920F920FB60F9214
:104C200011245F936F937F938F939F93AF93BF9361
:104C3000EF93FF9380913C08833069F48091670281
:104C4000882349F080916702815080936702811127
:104C500002C010923C081092090580911E019091AB
:104C60001F01A0912001B09121010196A11DB11D4C
:104C700080931E0190931F01A0932001B093210106
:104C800080911D01882309F44DC081E080934A087A
:104C9000F89480918100887F80938100789485E0EA
:104CA00090E09093090180930801F894109280009D
:104CB0001092810080E790E39093890080938800B0
:104CC0008091810088608093810080916F00826074
:104CD00080936F007894F894809181008360809332
:104CE0008100789480914808882329F080914808B1
:104CF00081508093480880911205882329F0809183
:104D00001205815080931205FF91EF91BF91AF91F1
:104D10009F918F917F916F915F910F900FBE0F9038
:104D20001F90189580913E08E0914708F0E0E95007
:104D3000FC4F649190E0019670E00E94543680939D
:104D40003E0880913E088111CDCF81E080934A08D2
:104D5000C9CF1F920F920FB60F9211242F933F933A
:104D60004F935F936F937F938F939F93AF93BF9373
:104D7000EF93FF930E94FF16FF91EF91BF91AF91C8
:104D80009F918F917F916F915F914F913F912F9163
:104D90000F900FBE0F901F9018951F920F920FB695
:104DA0000F9211242F933F934F935F936F937F93B1
:104DB0008F939F93AF93BF93EF93FF930E94A92686
:104DC000FF91EF91BF91AF919F918F917F916F91E3
:104DD0005F914F913F912F910F900FBE0F901F90B9
:104DE00018951F920F920FB60F9211242F933F9395
:104DF0004F935F936F937F938F939F93AF93BF93E3
:104E0000EF93FF9387E00E94DD04892BD9F4809112
:104E10006A00806380936A0083B7817F83BF0E94AA
:104E2000FF16FF91EF91BF91AF919F918F917F916D
:104E30006F915F914F913F912F910F900FBE0F9007
:104E40001F90189580916A008F7C80936A0083B7C9
:104E5000817F8460E3CF109275081092740888EE09
:104E600093E0A0E0B0E08093760890937708A09359
:104E70007808B09379082FE731E0309373082093D6
:104E800072082FEF3FEF30937F0820937E08109237
:104E9000C5081092C4088093C6089093C708A093D1
:104EA000C808B093C90881E991E09093C308809342
:104EB000C20889E68093D1081092D2081092D308D4
:104EC0001092D4081092D50888E48093CE0882EC22
:104ED00098E09093D0088093CF0889E18093F508FB
:104EE0001092F80810920C091092130910921509EB
:104EF0001092DA081092DC081092D9081092D808A3
:104F000083EA91E09093D7088093D60810923009F5
:104F100010922F098FEA91E090932E0980932D092A
:104F2000109268091092690910926A091092360964
:104F300010923509109238091092370910923A09E7
:104F400081E08093390982E280933B091092400905
:104F500010923F09E4E5F9E08FEF819399E0E236A2
:104F6000F907D9F781E0809351092FE034E03093BD
:104F700047092093460980934809109249091092E5
:104F80004A0980E480934B0910924C098EE094E02A
:104F900090936309809362098CE391E090933409C4
:104FA0008093330986E18093560984E18093550903
:104FB00085E1809354090E94E6098FEA91E090937D
:104FC0002E0980932D090895A4E3B0E0EAEEF7E2FC
:104FD0000C94D836789484B5826084BD84B58160A1
:104FE00084BD85B5826085BD85B5816085BD8091B4
:104FF0006E00816080936E0010928100809181002C
:105000008260809381008091810081608093810023
:105010008091800081608093800080919100826007
:1050200080939100809191008160809391008091A4
:1050300090008160809390008091C1008460809393
:10504000C1008091C10082608093C1008091C10045
:1050500081608093C1008091C30081608093C30010
:105060008091C00082608093C0008091C200816006
:105070008093C20080917A00846080937A0080914E
:105080007A00826080937A0080917A008E7F80938C
:105090007A0080917A00806880937A00109261088B
:1050A0001092D8041092D7048091D7008160809329
:1050B000D70080EA8093D80089B58F7E89BD89B5F5
:1050C000826089BD09B400FEFDCF61E070E080E040
:1050D00090E00E94B7058091D8008F7C806180931A
:1050E000D8008091E000807F8093E0008091E10013
:1050F0008E7E8093E1008DE08093E20061E08EE19E
:105100000E94340560E08EE10E94060583B7817F2E
:10511000846083BF61E084E00E94340561E084E044
:105120000E94060560E089E10E94340560E08DE19F
:105130000E9434058091D80080618093D8008FEF61
:105140009FEF90937F0880937E081092F604109250
:10515000F70410926F0810926E080E94CA0C86E144
:1051600096E09093DA048093D90487E196E09093D7
:10517000DC048093DB0461E087E10E9434058091C8
:1051800023010E948E1580916A09811105C081E07A
:1051900080936A090E94E60960913309709134098D
:1051A00088EA8DA39E012B5D3F4F4FE081E399E09C
:1051B0000E943508809133099091340921E08E30A6
:1051C000920751F090931101809310018EE091E0CD
:1051D000909334098093330983E399E090930F010E
:1051E00080930E0181E399E00E94C30981E08093DE
:1051F00051098091350990913609815A944099F16D
:1052000081EA94E0909336098093350980914809AA
:10521000811146C1E6EAF4E0E491E0934909EDEA40
:10522000F4E0E491E0934A0980914909082E000CCA
:10523000990B20914A09821B910927FD9395209192
:105240004B09203441F0829FC001112466E09695FD
:1052500087956A95E1F780934C098FE094E09093ED
:105260004709809346090E9490168091D1080E94B8
:1052700011046BE082EC98E00E94530D82EC98E000
:105280000E94830D1092F6041092F70410926F089A
:1052900010926E080E94CA0C86E196E09093DA04A0
:1052A0008093D90487E196E09093DC048093DB043B
:1052B0008091CE080E9411048091CF089091D0086F
:1052C000DC01ED91FC910190F081E02D61E0099508
:1052D0008091CF089091D008DC01ED91FC91019074
:1052E000F081E02D60E609958091CF089091D0087B
:1052F0000E94830D60E080E00E94340560E08EE053
:105300000E94B6150E942A1897FDDCC0880F892FCD
:10531000881F990B9195B1E08B27817080930005D0
:105320004BE050E070E060E0FE0131963F01CF01BC
:105330000E94023689819A8181319A4C69F42B85C9
:10534000F301AE01455F5F4F9AE58191980F4E17CB
:105350005F07D9F781E0291380E0F30140E055E0D1
:1053600028EF34E03DA72CA730E020E0882311F09F
:1053700022813381ACA5BDA52D933D93BDA7ACA7DC
:1053800032964A175B0781F78091690080628093AB
:105390006900EA9A10E000E0F801E256FE4FE4915D
:1053A000E11107C0F801E856FE4F849162E00E94C7
:1053B00034050F5F1F4F0630110571F780916A00A9
:1053C0008F7C80936A00EE9A80916900806480935C
:1053D0006900EB9A80916B00806F80936B008091E5
:1053E0006800816080936800F894109280001092A9
:1053F0008100109285001092840010928900109212
:105400008800789488E19FE00FB6F894A89580937F
:1054100060000FBE909360000E94DA15FE017D9639
:10542000FFA3EEA32FB7F89480911401909115017A
:10543000A0911601B09117012FBF803B9440A105A8
:10544000B10521F480911B0180FF01C0A8953AE0CD
:10545000D32E49E1C42E82E798E00E94CD077C015B
:10546000892B09F482C182E798E00E94B007E0919D
:10547000F5048A3019F08D3009F069C18FEF8E0F75
:10548000873158F4AE2FB0E0A352BB4F1C928091ED
:10549000DD048834C9F40E940E1A1092F504DBCFA3
:1054A000813041F4E0EBF4E0E491E0934909E1EB71
:1054B000F4E0B7CEEEEAF4E0E491E0934909EFEAD4
:1054C000F4E0AFCE80E02ACF833409F04EC08DEBFC
:1054D00091E0E230B9F58091DE048F33E9F46EEAB1
:1054E00071E082E798E00E94CF0608EF14E060E2E6
:1054F00082E798E00E94C706D8018D919D918D01A9
:105500000E942219ACA4BDA4A016B10681F782E7BF
:1055100098E00E945119C1CF8033B9F41092F90478
:105520001092F8041092FB041092FA041092FD04F9
:105530001092FC041092FF041092FE040E94C920F5
:105540008BEA91E00E945619A8CF813259F48091DC
:105550004908811107C00E94DF16882319F088EAE4
:1055600091E0F0CF84EA91E0EDCF843509F095CF5A
:10557000E23049F48091DE046DEE71E08F3309F47E
:10558000DCC01D8E54C0E431E1F78091DE0482332B
:10559000C1F78091DF048033A1F78091E2048D325E
:1055A00081F78091E5048D3261F78091E8048032C3
:1055B00041F78091EB048A3321F78091EE048A331E
:1055C00001F781E08D8FBE01635E7F4F80EE94E036
:1055D0000E94300490E08053984F9A838983BE01E3
:1055E000635E7F4F83EE94E00E9430048B83BE01A4
:1055F000635E7F4F86EE94E00E9430048C83BE0190
:10560000635E7F4F89EE94E00E9430048D83BE017B
:10561000635E7F4F8CEE94E00E9430048E83BE0167
:10562000635E7F4F8FEE94E00E9430048F838D8DF8
:10563000811103C082EE91E085CF809149088823D3
:1056400019F086ED91E07ECFC3010E949A15882360
:1056500009F47AC088E60E94110470E060E082ECF0
:1056600098E00E94D2158F816D2D0E94343620E182
:10567000829FB0011124692B82EC98E00E94530DA7
:105680008E816D2D0E94343630E1839FB00111244C
:10569000692B82EC98E00E94530D8D816D2D0E9444
:1056A000343640E1849FB0011124692B82EC98E0EC
:1056B0000E94530D61E082EC98E00E94530D8C81B2
:1056C0006D2D0E94343650E1859FB0011124692B65
:1056D00082EC98E00E94530D8B816D2D0E94343630
:1056E000A0E18A9FB0011124692B82EC98E00E940E
:1056F000530D8981805D6D2D0E943436B0E18B9F02
:10570000B0011124692B82EC98E00E94530D82ECC9
:1057100098E00E94830D811117C00E942A1897FDFE
:1057200005C0682F6F778FE00E94B61581E08093E7
:1057300000058093220168EC71E082E798E00E9406
:10574000CF060E949C20A9CE8CEC91E0FBCEE831E4
:1057500048F491E09E0F9093F504F0E0E352FB4F84
:10576000808379CEC092F50476CE19821A821B828C
:105770001C8244E06091D10882EC98E00E9461179D
:105780008091F7049091F604891B990B049709F016
:10579000C1C06E01E5E0CE0ED11C830182EC98E021
:1057A0000E94190DD8018D938D01CA16DB06B1F741
:1057B0008C81982F9C7063E09C3011F08B8162E0AB
:1057C00087FDA8C08C7090E095958795DC01AA0FA5
:1057D000BB1FFD01E80FF91FEA59FE4F8080918041
:1057E000A2800A2C000CBB08F30120E030E0A901E4
:1057F0007191542F432F322F2227272B7E2F76197A
:105800007617B0F382229322A422B52289288A280F
:105810008B2879F08A0F9B1FFC01EF5AFE4F808185
:105820009181A2810A2E000CBB0B282B392B4A2B0D
:105830005B2B2F3FBFE73B07410551050CF414C11B
:105840008FEF9FEFAFEFBFE78093D2089093D3081D
:10585000A093D408B093D5088091CE080E9411047B
:1058600070E060E08091CF089091D0080E94D2153E
:105870008091CF089091D0080E94830D42E0609102
:10588000CE088091CF089091D0080E946117809136
:10589000CF089091D008DC01ED91FC910284F38552
:1058A000E02D0995182F8091CF089091D008DC0148
:1058B000ED91FC910284F385E02D09952090D208AA
:1058C0003090D3084090D4085090D508B201A1017F
:1058D00041505109610970484E3F5F4F6F4F7F4FF4
:1058E00008F4E1C020E030E0A90160E080911C01F3
:1058F0000E94022181110E946719E0911C01F0E0D1
:10590000EE0FFF1FE75DFE4F88EF9FE791838083D7
:105910000E94DA1550904A08552009F4DBC2109213
:105920004A0880910005882309F46DC1CE014D9687
:105930000E944818182F882309F465C18D8D9E8D0B
:105940006C0130EDC31A37E0D30A8D5C9740FC013F
:10595000F695E795F695E7959601ADE6B1E00E94DC
:10596000AF364B015C018E0E9F1EA11CB11CAF8D8A
:105970004A2F4150550BFA01EE0FFF1FE55CFC4F1B
:105980008591949168A16150770B860F971FA501AF
:105990009401280F391F411D511DA33048F0C60145
:1059A00083709927892B21F42F5F3F4F4F4F5F4F13
:1059B000E0910905A8E1B0E00E94C53629A15B018C
:1059C0006C01A20EB11CC11CD11CA6019501ACE357
:1059D000B0E00E94C5362AA15B016C01A20EB11C89
:1059E000C11CD11CA60195010E94C5362BA15B01EB
:1059F0006C01A20EB11CC11CD11CA6019501AAE02C
:105A0000B0E00E94C5366E0F711D811D911D209161
:105A10002201211112C08090050590900605A090EA
:105A20000705B09008059B01AC01281939094A09FE
:105A30005B0949015A01B7FE0AC0609305057093DE
:105A40000605809307059093080510922201809027
:105A5000050590900605A0900705B0900805681907
:105A600079098A099B09E4C02130E0E83E07EFEF9D
:105A70004E075E072CF480E090E0A0E0B0E8E4CEB2
:105A8000A8EEB3E00E94C53620E830E040E050E0E8
:105A90000E948A362093D2083093D3084093D408CA
:105AA0005093D508D9CEDC0164E0B595A7956A95E9
:105AB000E1F7AF70BB27E0E11E02C0011124A80F7F
:105AC000B91F2AE030E00E94BE364B015C01F8E0CD
:105AD0008F0E911CA11CB11C74E0B594A7949794EF
