:100000000C94B8000C94E0000C94E0000C94E00018
:100010000C94E0000C94E0000C94E0000C94E000E0
:100020000C94E0000C94E0000C94DA050C94430668
:100030000C94E0000C94E0000C94E0000C94E000C0
:100040000C94E0000C94E0000C94E0000C94E000B0
:100050000C94E0000C94E0000C94E0000C949005EB
:100060000C94E0000C94E0000C94E0000C94E00090
:100070000C94E0000C94E0000C94E0000C94E00080
:100080000C94E0000C94E0000C94E0000C94E00070
:100090000C94E0000C94E0000C94E0000C94E00060
:1000A0000C94E0000C94E0000C94E0004641494CB4
:1000B00020005041535320002077616E7420003A95
:1000C00020676F742000080B000202020000090480
:1000D00000000102020000052400100105240101B6
:1000E000010424020605240600010705810310000F
:1000F0004009040100020A00000007050202400056
:1001000000070583024000000403090412010002F5
:10011000EF020140512B0510000101020301506163
:100120007820496E737472756D656E747300543403
:10013000303000206661696C757265732C20616CCB
:100140006C2070617373656400204641494C4544DE
:100150000053554D4D4152593A20002D2D2D2D2043
:1001600063616C5F74657374202D2D2D2D00430B1E
:1001700011241FBECFEFDAE0DEBFCDBF13E0A0E059
:10018000B1E0E6EEF7E102C005900D92A638B107A6
:10019000D9F724E0A6E8B3E001C01D92AC33B20762
:1001A000E1F710E0C8EBD0E004C02197FE010E9407
:1001B000EB0BC73BD107C9F70E9485080C94F10BE4
:1001C0000C9400009091EB03911103C08FEF9FEF0F
:1001D00008954FB7F89492E09093E9009091F2005F
:1001E000292F30E01216130614F421E030E0232BFF
:1001F00029F084E68093EA038091F100992339F095
:100200002091F200211103C02BE62093E8004FBF9C
:100210009923E1F290E008952FB7F89483E080935A
:10022000E9009091E800892F807295FF04C09091B9
:10023000F20080E4891B2FBF08958091E2038111B1
:100240000DC082E08093DE0384E08093DF03109290
:10025000E1031092E00381E08093E2038EED93E0EE
:1002600008953FB7F8948091DA039091DB03A09151
:10027000DC03B091DD0326B5A89B05C02F3F19F024
:100280000196A11DB11D3FBFBA2FA92F982F882716
:10029000BC01CD01620F711D811D911D43E0660FF0
:1002A000771F881F991F4A95D1F708958F929F92C3
:1002B000AF92BF92CF92DF92EF92FF924B015C011F
:1002C0000E9431016B017C010E9431016C197D0992
:1002D0008E099F09683E734081059105A8F321E0CE
:1002E000821A9108A108B10888EEC80E83E0D81ED2
:1002F000E11CF11C81149104A104B10429F7FF90C1
:10030000EF90DF90CF90BF90AF909F908F90089527
:100310004091B1035091B2032091AF033091B003EB
:1003200042175307B4F49091E8009570E1F390916F
:10033000E80092FD19C08093F1008091B103909183
:10034000B20301968F739927892B19F48EEF80934E
:10035000E8008091B1039091B20301969093B203AB
:100360008093B10381E0089580E00895EF92FF92B9
:100370000F931F93CF93DF93F82E192FE62E042FA0
:1003800081E0860F880F0E94880183E00E94880127
:10039000CF2DD12FEC0EFD2EF11CCE15DF05A9F0CF
:1003A00007FF11C0FE0184910E948801182F80E090
:1003B0000E948801812321968111EFCFCDB7DEB74E
:1003C000E6E00C94DC0B8881EFCF81E0F7CFB0E062
:1003D000A0E0EDEEF1E00C94BF0BD82E8A01EB010A
:1003E0007B01E40EF51ECE15DF0559F0D7FE0FC0D8
:1003F000FE0184910E94880121968111F4CF0FEFB4
:100400001FEFC801CDB7DEB7E7E00C94DB0B8881A6
:10041000F1CFA1E0B0E0EFE0F2E00C94C20B82E09B
:10042000898342E450E066EC70E080E80E94E701D6
:100430000E941D01DC0112960D911C910115110500
:1004400089F0D801ED91FC910280F381E02DBE018D
:100450006F5F7F4FC801099597FD04C0F8010085C3
:100460001185ECCF89812196E4E00C94DE0BB0E09D
:10047000A0E0EDE3F2E00C94BA0B6C017B018A0181
:1004800080910B01882309F45BC08091EB038823E2
:1004900009F456C08091B50380FF05C08091E0004B
:1004A00082608093E000E801B12C8AEFA82E93E0EF
:1004B000892E2AE3922E209711F4BB20D9F10E94B5
:1004C0000C0181110AC0AA94AA20D1F161E070E068
:1004D00080E090E00E945601EECF8C171D0611F0CF
:1004E0000CF08C2F9FB7F8948092E9002091E800DF
:1004F00025FD02C09FBFDFCF282F30E0C21BD30BEA
:10050000F701815020F041914093F100FACFE20EC3
:10051000F31EBB2021F09092E800B12CEBCF80912C
:10052000E80085FDE7CF9092E800BB24B3942097C4
:1005300009F3F3CF84E68093B403101611063CF060
:1005400081E090E0F6019383828310E000E0C8012F
:10055000CDB7DEB7ECE00C94D60BA1E0B0E0E3EB56
:10056000F2E00C94C40B6983DC01ED91FC910280F4
:10057000F381E02D41E050E0BE016F5F7F4F0995B0
:100580002196E2E00C94E00B0F931F93CF93DF933F
:100590008C01D0E0C0E0F801EC0FFD1F64916623F0
:1005A00041F08CEE93E00E94AD02892B11F0219670
:1005B000F2CFCE01DF91CF911F910F91089583E08B
:1005C0008093E9008091F200882319F08AE38093F8
:1005D000E80008950E940C0190E00895FC018485D4
:1005E000958597FD05C02FEF3FEF35872487089548
:1005F0000E94E2000895CF93DF93EC018C859D85E6
:1006000097FF04C00E94E2009D878C878C859D85A2
:10061000DF91CF910895FC018485958597FD0BC0EE
:100620009FB7F89482E08093E9008091F2009FBF29
:1006300090E0019608959FB7F89482E08093E900D6
:100640008091F2009FBF90E00895FC01019000208E
:10065000E9F73197AF01481B590BBC018CEE93E0D1
:100660000E94370208958F929F92AF92BF920F938C
:100670001F93CF93DF93CDB7DEB7A1970FB6F89452
:10068000DEBF0FBECDBF19A2423008F44AE08E0192
:100690000F5D1F4F842E912CB12CA12CA50194012C
:1006A0000E94920BE62FB901CA01EA30F4F4E05D32
:1006B000D801EE938D01232B242B252B79F790E085
:1006C00080E0109719F0CD010E942503A1960FB686
:1006D000F894DEBF0FBECDBFDF91CF911F910F9178
:1006E000BF90AF909F908F900895E95CE1CFCF923B
:1006F000DF92EF92FF92CF93DF936B017C016DE26B
:100700008CEE93E00E94AD02EC0166277727CB01C7
:100710006C197D098E099F094AE00E9433038C0FF2
:100720009D1FDF91CF91FF90EF90DF90CF900895C4
:10073000ABE0B0E0EEE9F3E00C94C40B81E19AEC9D
:100740009A8389838091CC039091CD039C838B8382
:100750008091CE039091CF039E838D838091D003AF
:100760009091D10398878F838091D2039091D30386
:100770009A878987FE013196AE01455F5F4F2AE572
:10078000CF013191230FE417F507D9F72B874BE001
:1007900050E070E060E00E94700B2B96E2E00C9459
:1007A000E00BA9E0B0E0E7EDF3E00C94B40B3C0102
:1007B0001B018091CB038230C1F0E7E8F3E02FEF1B
:1007C0003FE780E090E81082118212821382358325
:1007D000248397838683108611863A9613E0EF3A36
:1007E000F10789F782E08093CB0319829301205FA0
:1007F0003F4F3D832C83198183E0882E912CA12CBF
:10080000B12C10FD06C01DEF812E99249A94A92CBD
:10081000B92C1981B6E9CB2ED12CE12CF12C153055
:1008200019F0C12CD12C760123012A823B8227E8C2
:1008300033E03F832E83D2014D915D916D917D9187
:100840002D01DB01CA01880D991DAA1DBB1DEA817E
:10085000FB812191FB83EA83213009F095C0DB0104
:10086000CA018C0D9D1DAE1DBF1D3091CB033230D2
:1008700009F075C0EE81FF813085303108F06FC01E
:100880003F5F3087222309F48FC0803DFAE89F073D
:10089000FFEFAF07BF070CF484C0813315E7910762
:1008A000A105B10524F080E395E7A0E0B0E0AE81BA
:1008B000BF814D915D916D917C9113978C01092EB3
:1008C000000C220B330B400F511F621F731FFD01E1
:1008D0004083518362837383248135818217930718
:1008E00014F495838483AE81BF8116962D913C913B
:1008F00017972817390724F417969C938E93169709
:10090000E7E8F3E08085803150F13A962FEA33E052
:100910002E173F07B9F787EC93E099878887E7E8B8
:10092000F3E081E090E000E021853085231342C0B0
:10093000A885B9851C9201963A96288539852F5F3E
:100940003F4F398728878530910571F701110E9443
:10095000980336E03093860343E04093CB038E81C7
:100960009F810A969F838E83AC81BD81A415B505B6
:1009700009F061CF19811F5F1983103109F03BCF56
:100980002996E2E10C94D00B223039F0233039F46F
:1009900021E01981173009F068CF20E066CF21E00F
:1009A00064CF80ED9AE883CFEE81FF8181858F5FF0
:1009B0008187A6CF211109C02681378144815581C5
:1009C000241B350B213531052CF012E0A885B985A3
:1009D0001C93B1CF4081518162817381485F5F4F29
:1009E0006F4F7F4FA4E07595679557954795AA95EA
:1009F000D1F79A0126503F4F253F314010F013E0C8
:100A0000E5CF9C01220F331F26533C4F5195419552
:100A10005109D9014D935C9311E0A885B9851C93C8
:100A200001E089CFB0E0A0E0E8E1F5E00C94BA0B7A
:100A3000EC014A015B016801790182EB90E08C14C2
:100A40009D04AE04BF0439F08091D4038F5F80937E
:100A5000D4038CEA90E00E94C402CE010E942503D8
:100A60008FEB90E00E94C402B7FE17C0C501B4012D
:100A70000E94770388EB90E00E94C402F7FE13C047
:100A8000C701B6010E94770381E591E00E9425032A
:100A9000CDB7DEB7ECE00C94D60B4AE0C501B4014B
:100AA0000E943303E7CF4AE0C701B6010E94330337
:100AB000EBCFABE0B0E0EFE5F5E00C94C40B4BE01E
:100AC00050E070E060E0CE0101960E94580B8981F1
:100AD0009A8181319A4C71F42B85FE013196AE01D9
:100AE000455F5F4F9AE58191980FE417F507D9F7B5
:100AF00081E0291380E0ACECB3E0FE01319630E0F8
:100B000020E0882311F0228133812D933D9332968A
:100B100093E0A43DB90799F72B96E2E00C94E00B23
:100B20001F920F920FB60F9211242F933F938F9322
:100B30009F93AF93BF938091D6039091D703A091D9
:100B4000D803B091D9033091D50326E0230F2D3778
:100B500058F50296A11DB11D2093D5038093D603AD
:100B60009093D703A093D803B093D9038091DA036D
:100B70009091DB03A091DC03B091DD030196A11DF0
:100B8000B11D8093DA039093DB03A093DC03B09351
:100B9000DD03BF91AF919F918F913F912F910F9066
:100BA0000FBE0F901F90189529E8230F0396A11DE3
:100BB000B11DD2CF1F920F920FB60F9211248F93B7
:100BC0009F938091E1009091E100937F9093E100E9
:100BD00083FF0FC01092E90091E09093EB00109218
:100BE000EC0092E39093ED001092EB0398E0909369
:100BF000F00082FF1CC093E09093E9009091F20016
:100C0000992319F09AE39093E8009091B403992303
:100C100029F09091B40391509093B4039091EA031A
:100C2000992329F09091EA0391509093EA0384FF6D
:100C300018C08091E2008E7E81608093E2008091F6
:100C4000E1008F7E8093E1008091B5038E7E80610C
:100C50008093B5039F918F910F900FBE0F901F90BF
:100C6000189580FFF7CF8091E2008E7E806180939F
:100C7000E2008091E1008E7E8093E1008091B503D7
:100C80008E7E8160E5CF1F920F920FB60F921124D6
:100C9000CF92DF92EF92FF920F931F932F933F9388
:100CA0004F935F936F937F938F939F93AF93BF9374
:100CB000EF93FF93CF93DF93CDB7DEB76C97DEBF93
:100CC000CDBF1092E9008091E80083FF2FC089E03A
:100CD000FE017596EE2EDF2E815029F09091F100E5
:100CE00090833196F9CF84E68093EA0382EF809374
:100CF000E8008D8987FF39C09091E80090FFFCCF14
:100D0000982F907609F033C19E894F89588D2F898D
:100D1000F88C911131C0803861F58091B6038093D1
:100D2000F1001092F1008EEF8093E8006C960FB600
:100D3000F894DEBF0FBECDBFDF91CF91FF91EF9151
:100D4000BF91AF919F918F917F916F915F914F91E3
:100D50003F912F911F910F91FF90EF90DF90CF90D7
:100D60000F900FBE0F901F9018959EEF9093E80084
:100D7000C7CF1092F100D5CF913059F48111D3CF64
:100D80004130510581F68091B6038D7F8093B60383
:100D9000CACF933049F48111C6CF4130510519F6BD
:100DA0008091B6038260F2CF953041F48091E800E3
:100DB00080FFFCCF20682093E300B5CF963009F088
:100DC000A8C00B8D1C8D22E01092E9001092B20396
:100DD0001092B103F2122EC01092B0031092AF0322
:100DE0000E9409021F8299E09983FA8291E09E8312
:100DF00090EA98879AEF99872091B1033091B203D6
:100E0000275F3F4F3C832B838D831092E900109224
:100E1000B2031092B1031093B0030093AF0349E003
:100E200050E0BE016F5F7F4F80E00E94E7010E94AB
:100E3000090279CF1093B0030093AF030E941D0104
:100E4000DC0112960D911C910115110509F457C191
:100E5000D801ED91FC910480F581E02D6E2D7D2D62
:100E6000C8010995009709F045C1F8010085118571
:100E7000EBCFF3E0FF120EC08F89882309F440C046
:100E8000823061F440E864E08EE291E00E94B601B5
:100E9000811149CF81E28093EB0048CF813029F462
:100EA00040E86FE08EE191E0F1CF833099F70E9446
:100EB0001D01DC011296ED90FC908E010F5F1F4F1B
:100EC0006801E114F10479F0D701ED91FC910680FD
:100ED000F781E02DB801C7010995080F111DF70131
:100EE000E084F184EECFD8011C92F601019000203D
:100EF000E9F73197BF016C197D0940E0C601C6CF03
:100F000068E071E0FB01449150E080E80E94E70155
:100F10000ACF973009F4BECF983021F481E0809356
:100F2000F10001CF993009F0FECE837009F0B2CF05
:100F3000EBE4F1E081E031E096E32191222371F0CE
:100F40008093E9003093EB00DF0111972C912093FF
:100F5000EC009093ED008F5F873079F78EE78093F8
:100F6000EA001092EA008F898093EB03DCCE8B8D30
:100F70009C8D1092E9001092B2031092B1039093ED
:100F8000B0038093AF03898D81119AC08E899D89AA
:100F9000913A49F4813209F07DCF47E050E064E0B6
:100FA00071E080E0B3CF913209F074CF833269F4FD
:100FB0008F89988DB0E0A0E08093000190930101AB
:100FC000A0930201B0930301AECE8032A9F48091C8
:100FD000E80082FFFCCF88E0E4E0F1E0815029F0F6
:100FE0009091F10090833196F9CF84E68093EA03E3
:100FF0008BEF8093E80097CE823209F094CE8F89F0
:1010000080930B01EEEFFFE7859194918B3F9C4D10
:1010100051F1E0E0F8E08091040190910501A09188
:101020000601B0910701803B9440A105B105F1F4A0
:1010300080910B0180FD1AC0EE3F8AE0F80789F528
:1010400087E797E791838083809160008093B30363
:1010500088E19BE00FB6F894A895809360000FBEDE
:101060009093600060CEEEEFFAE0D5CF8081918161
:101070008737974709F057CEA8958091600088611F
:10108000809360008091B30380936000EE3F2AE07C
:10109000F20789F08091FE0A9091FF0A9183808384
:1010A00042CE808191818737980751F29093FF0A51
:1010B0008093FE0AC5CF1092FF0A1092FE0A33CE2B
:1010C0000E941D01DC0112960D911C910115110564
:1010D00009F4E0CED801ED91FC910190F081E02D72
:1010E0006E2D7D2DC801099581111DCEF801008559
:1010F0001185ECCF181619060CF415CECBCEF1E005
:10110000FF12B7CE6CE071E0FDCEA8E1B0E0EBE8F5
:10111000F8E00C94B40B789484B5826084BD84B5F7
:10112000816084BD85B5826085BD85B5816085BDE2
:1011300080916E00816080936E001092810080919A
:101140008100826080938100809181008160809322
:101150008100809180008160809380008091910067
:1011600082608093910080919100816080939100D2
:10117000809190008160809390008091C100846094
:101180008093C1008091C10082608093C1008091F2
:10119000C10081608093C1008091C3008160809311
:1011A000C3008091C00082608093C0008091C20023
:1011B00081608093C20080917A00846080937A007D
:1011C00080917A00826080937A0080917A008E7F8D
:1011D00080937A0080917A00806880937A001092E0
:1011E000EB031092B6031092B5038091D700816093
:1011F0008093D70080EA8093D80089B58F7E89BD1F
:1012000089B5826089BD09B400FEFDCF61E070E060
:1012100080E090E00E9456018091D8008F7C806130
:101220008093D8008091E000807F8093E0008091DF
:10123000E1008E7E8093E1008DE08093E2008FEFED
:101240009FEF9093F9038093F80340E150E070E042
:1012500060E087EB93E00E94580B80910C01909125
:101260000D01A0910E01B0910F018D8B9E8BAF8B64
:10127000B88F88E7C82ED12CE12CF12C809010017A
:1012800090901101A0901201B090130140901401B0
:1012900050901501609016017090170190E0292E72
:1012A00090E0392E1092D4038BE591E00E94C402A5
:1012B00081E591E00E9425031092CD031092CC03AA
:1012C0001092CF031092CE031092D1031092D0034C
:1012D0001092D3031092D2030E9498034091CC0342
:1012E0005091CD038091CE039091CF03480F591FA9
:1012F000052E000C660B770B00E010E0980184E5EA
:1013000091E00E94120580E1E8E1F1E0DE01119632
:1013100001900D928A95E1F78D899E89AF89B88DEC
:10132000898B9A8BAB8BBC8BBE016F5E7F4FCE01DE
:1013300001960E94D1038091CB0341E050E060E030
:1013400070E0833019F040E050E0BA0101E010E0B5
:1013500020E030E083E691E00E9412054091C7034F
:1013600050E070E060E003E010E020E030E08CE668
:1013700091E00E9412054091C80350E070E060E0E7
:1013800001E010E020E030E08DE891E00E941205DD
:101390004091CE035091CF03052E000C660B770BC6
:1013A00009E310E020E030E086EA91E00E941205B7
:1013B0004091C90350E070E060E002E010E020E0FE
:1013C00030E08AEB91E00E9412054091CA0350E0A0
:1013D00070E060E000E010E0980182ED91E00E9492
:1013E00012054091CC035091CD03052E000C660BE5
:1013F000770B00E010E098018FEE91E00E9412055B
:101400004091D0035091D103052E000C660B770B51
:1014100000E010E0980188E192E00E9412054091FE
:10142000D2035091D303052E000C660B770B00E01E
:1014300010E0980181E492E00E9412050E94590593
:101440004091CE035091CF03052E000C660B770B15
:1014500009E310E020E030E08AE692E00E94120505
:1014600019821A821B821C821D821E821F8218868C
:1014700019861A861B861C86CD86DE86EF86F88A3C
:10148000898A9A8AAB8ABC8ABE016F5E7F4FCE0181
:1014900001960E94D1034091CA0350E070E060E0E1
:1014A00001E010E020E030E08FE792E00E941205BA
:1014B0004091D2035091D303052E000C660B770B9D
:1014C00008E81FEF2FEF3FEF83E992E00E9412053B
:1014D0004091CE035091CF03052E000C660B770B85
:1014E00009E310E020E030E08AEA92E00E94120571
:1014F0000E9459054091CE035091CF03052E000C58
:10150000660B770B09E310E020E030E08DEC92E011
:101510000E9412054091D2035091D303052E000C76
:10152000660B770B08E81FEF2FEF3FEF80EE92E09E
:101530000E94120580E1E8E2F1E0DE0111960190DF
:101540000D928A95E1F7498A5A8A6B8A7C8ABE0194
:101550006F5E7F4FCE0101960E94D1034091C70379
:1015600050E070E060E001E010E020E030E083EF68
:1015700092E00E9412054091CC035091CD03052EBC
:10158000000C660B770B0AEF10E020E030E08DE1F5
:1015900093E00E9412054091C80350E070E060E0C3
:1015A00002E010E020E030E08FE293E00E941205BC
:1015B0004091CE035091CF03052E000C660B770BA4
:1015C00009E310E020E030E08BE493E00E94120594
:1015D00083E090E00E94680B65E5682783E090E077
:1015E0000E94800B0E9459054091CC035091CD037D
:1015F0008091CE039091CF03480F591F8091D20361
:101600009091D303480F591F052E000C660B770BE2
:1016100000E010E0980187E693E00E94120540E1A7
:1016200050E070E060E087EB93E00E94700B0E9456
:10163000590581E591E00E94C4021091D403612F05
:1016400070E090E080E04AE00E94330383E391E0A1
:10165000112311F089E491E00E94C40281E591E038
:101660000E94250381E591E00E94250368EB7BE061
:1016700080E090E00E9456012114310409F412CE5A
:101680000E9400000FCEECEEF3E01382128288EE8F
:1016900093E0A0E0B0E084839583A683B7838CE3D6
:1016A00091E0918380838FEF9FEF958784870895E2
:1016B000DC01CB01FC01F999FECF06C0F2BDE1BD12
:1016C000F89A319600B40D9241505040B8F7089501
:1016D000F999FECF92BD81BDF89A992780B50895FA
:1016E000DC01A40FB51F4150504048F0CB01840FDE
:1016F000951F2E910E94810B41505040D0F70895C4
:10170000262FF999FECF92BD81BDF89A019700B4BA
:10171000021639F01FBA20BD0FB6F894FA9AF99A5A
:101720000FBE0895A1E21A2EAA1BBB1BFD010DC01E
:10173000AA1FBB1FEE1FFF1FA217B307E407F50781
:1017400020F0A21BB30BE40BF50B661F771F881F5D
:10175000991F1A9469F760957095809590959B01F3
:10176000AC01BD01CF0108952F923F924F925F923D
:101770006F927F928F929F92AF92BF92CF92DF92A1
:10178000EF92FF920F931F93CF93DF93CDB7DEB706
:10179000CA1BDB0B0FB6F894DEBF0FBECDBF09949A
:1017A0002A88398848885F846E847D848C849B84F1
:1017B000AA84B984C884DF80EE80FD800C811B81FF
:1017C000AA81B981CE0FD11D0FB6F894DEBF0FBE2E
:1017D000CDBFED010895EE0FFF1F0590F491E02DB0
:0617E0000994F894FFCF0C
:1017E600FFFFFFFF00E10000000000000000010213
:1017F600020202000003020290010000C7FFFFFF81
:101806000A0000000000000006FFFFFF05000000C0
:10181600000000000000000000000000AD023702DA
:10182600EA02DF020B03EE02FB0200C18081000028
:10183600000D0A00737461727473206174207A65F6
:10184600726F0072756E20646F6E6500636830207B
:101856006661722066726F6D207A65726F202D3E0A
:10186600204E4F545F41545F5A45524F00636831D2
:1018760020737461626C65202D3E2043414C4942C1
:10188600524154454400636831206F66667365743F
:10189600203D202B353720755600636832206F7542
:1018A600746C696572202D3E20554E535441424C4E
:1018B6004500636833206E6F2070726F6265202D5D
:1018C6003E204E4F545F41545441434845440072B4
:1018D600656A65637465642F616273656E742063FF
:1018E60068616E6E656C7320756E6368616E6765A0
:1018F600642028636830290072656A6563746564CC
:101906002F616273656E74206368616E6E656C73B9
:1019160020756E6368616E67656420286368322986
:101926000072656A65637465642F616273656E74BF
:10193600206368616E6E656C7320756E6368616E98
:10194600676564202863683329007065727369735C
:1019560074656420636831206F666673657400720F
:10196600756E32206368332043414C4942524154DC
:1019760045440072756E3220636833206F66667365
:101986006574203D202D3132300072756E32206331
:1019960068312028616273656E7429206B656570F5
:1019A60073206F6C64206F66667365740072756E63
:1019B60032207065727369737465642063683100E0
:1019C60072756E3220706572736973746564206314
:1019D6006833002D323530207556206973207769BB
:1019E6007468696E20746865206C696D6974202D51
:1019F6003E2043414C4942524154454400636830BD
:101A0600206F6666736574203D202B323530006F7B
:101A16006E65206261642072656164696E67202D5F
:101A26003E20554E535441424C4500636831207365
:101A360074696C6C20353720616674657220554E6A
:101A4600535441424C4500636F7272757074204561
:101A56004550524F4D202D3E206F66667365747358
:061A6600207A65726F009A
:00000001FF
